{
  "_format": "hh-sol-artifact-1",
  "contractName": "zer0dexV3NftManager",
  "sourceName": "contracts/zer0dexV3NftManager.sol",
  "abi": [
    {
      "inputs": [
        {
          "internalType": "address",
          "name": "_factory",
          "type": "address"
        },
        {
          "internalType": "address",
          "name": "_WETH9",
          "type": "address"
        },
        {
          "internalType": "string",
          "name": "_tokenURI_",
          "type": "string"
        }
      ],
      "stateMutability": "nonpayable",
      "type": "constructor"
    },
    {
      "anonymous": false,
      "inputs": [
        {
          "indexed": true,
          "internalType": "address",
          "name": "owner",
          "type": "address"
        },
        {
          "indexed": true,
          "internalType": "address",
          "name": "approved",
          "type": "address"
        },
        {
          "indexed": true,
          "internalType": "uint256",
          "name": "tokenId",
          "type": "uint256"
        }
      ],
      "name": "Approval",
      "type": "event"
    },
    {
      "anonymous": false,
      "inputs": [
        {
          "indexed": true,
          "internalType": "address",
          "name": "owner",
          "type": "address"
        },
        {
          "indexed": true,
          "internalType": "address",
          "name": "operator",
          "type": "address"
        },
        {
          "indexed": false,
          "internalType": "bool",
          "name": "approved",
          "type": "bool"
        }
      ],
      "name": "ApprovalForAll",
      "type": "event"
    },
    {
      "anonymous": false,
      "inputs": [
        {
          "indexed": true,
          "internalType": "uint256",
          "name": "tokenId",
          "type": "uint256"
        },
        {
          "indexed": false,
          "internalType": "address",
          "name": "recipient",
          "type": "address"
        },
        {
          "indexed": false,
          "internalType": "uint256",
          "name": "amount0",
          "type": "uint256"
        },
        {
          "indexed": false,
          "internalType": "uint256",
          "name": "amount1",
          "type": "uint256"
        }
      ],
      "name": "Collect",
      "type": "event"
    },
    {
      "anonymous": false,
      "inputs": [
        {
          "indexed": true,
          "internalType": "uint256",
          "name": "tokenId",
          "type": "uint256"
        },
        {
          "indexed": false,
          "internalType": "uint128",
          "name": "liquidity",
          "type": "uint128"
        },
        {
          "indexed": false,
          "internalType": "uint256",
          "name": "amount0",
          "type": "uint256"
        },
        {
          "indexed": false,
          "internalType": "uint256",
          "name": "amount1",
          "type": "uint256"
        }
      ],
      "name": "DecreaseLiquidity",
      "type": "event"
    },
    {
      "anonymous": false,
      "inputs": [
        {
          "indexed": true,
          "internalType": "uint256",
          "name": "tokenId",
          "type": "uint256"
        },
        {
          "indexed": false,
          "internalType": "uint128",
          "name": "liquidity",
          "type": "uint128"
        },
        {
          "indexed": false,
          "internalType": "uint256",
          "name": "amount0",
          "type": "uint256"
        },
        {
          "indexed": false,
          "internalType": "uint256",
          "name": "amount1",
          "type": "uint256"
        }
      ],
      "name": "IncreaseLiquidity",
      "type": "event"
    },
    {
      "anonymous": false,
      "inputs": [
        {
          "indexed": true,
          "internalType": "address",
          "name": "from",
          "type": "address"
        },
        {
          "indexed": true,
          "internalType": "address",
          "name": "to",
          "type": "address"
        },
        {
          "indexed": true,
          "internalType": "uint256",
          "name": "tokenId",
          "type": "uint256"
        }
      ],
      "name": "Transfer",
      "type": "event"
    },
    {
      "inputs": [],
      "name": "DOMAIN_SEPARATOR",
      "outputs": [
        {
          "internalType": "bytes32",
          "name": "",
          "type": "bytes32"
        }
      ],
      "stateMutability": "view",
      "type": "function"
    },
    {
      "inputs": [],
      "name": "PERMIT_TYPEHASH",
      "outputs": [
        {
          "internalType": "bytes32",
          "name": "",
          "type": "bytes32"
        }
      ],
      "stateMutability": "view",
      "type": "function"
    },
    {
      "inputs": [],
      "name": "WETH9",
      "outputs": [
        {
          "internalType": "address",
          "name": "",
          "type": "address"
        }
      ],
      "stateMutability": "view",
      "type": "function"
    },
    {
      "inputs": [
        {
          "internalType": "address",
          "name": "to",
          "type": "address"
        },
        {
          "internalType": "uint256",
          "name": "tokenId",
          "type": "uint256"
        }
      ],
      "name": "approve",
      "outputs": [],
      "stateMutability": "nonpayable",
      "type": "function"
    },
    {
      "inputs": [
        {
          "internalType": "address",
          "name": "owner",
          "type": "address"
        }
      ],
      "name": "balanceOf",
      "outputs": [
        {
          "internalType": "uint256",
          "name": "",
          "type": "uint256"
        }
      ],
      "stateMutability": "view",
      "type": "function"
    },
    {
      "inputs": [],
      "name": "baseURI",
      "outputs": [
        {
          "internalType": "string",
          "name": "",
          "type": "string"
        }
      ],
      "stateMutability": "pure",
      "type": "function"
    },
    {
      "inputs": [
        {
          "internalType": "uint256",
          "name": "tokenId",
          "type": "uint256"
        }
      ],
      "name": "burn",
      "outputs": [],
      "stateMutability": "payable",
      "type": "function"
    },
    {
      "inputs": [
        {
          "components": [
            {
              "internalType": "uint256",
              "name": "tokenId",
              "type": "uint256"
            },
            {
              "internalType": "address",
              "name": "recipient",
              "type": "address"
            },
            {
              "internalType": "uint128",
              "name": "amount0Max",
              "type": "uint128"
            },
            {
              "internalType": "uint128",
              "name": "amount1Max",
              "type": "uint128"
            }
          ],
          "internalType": "struct INonfungiblePositionManager.CollectParams",
          "name": "params",
          "type": "tuple"
        }
      ],
      "name": "collect",
      "outputs": [
        {
          "internalType": "uint256",
          "name": "amount0",
          "type": "uint256"
        },
        {
          "internalType": "uint256",
          "name": "amount1",
          "type": "uint256"
        }
      ],
      "stateMutability": "payable",
      "type": "function"
    },
    {
      "inputs": [
        {
          "internalType": "address",
          "name": "token0",
          "type": "address"
        },
        {
          "internalType": "address",
          "name": "token1",
          "type": "address"
        },
        {
          "internalType": "uint24",
          "name": "fee",
          "type": "uint24"
        },
        {
          "internalType": "uint160",
          "name": "sqrtPriceX96",
          "type": "uint160"
        }
      ],
      "name": "createAndInitializePoolIfNecessary",
      "outputs": [
        {
          "internalType": "address",
          "name": "pool",
          "type": "address"
        }
      ],
      "stateMutability": "payable",
      "type": "function"
    },
    {
      "inputs": [
        {
          "components": [
            {
              "internalType": "uint256",
              "name": "tokenId",
              "type": "uint256"
            },
            {
              "internalType": "uint128",
              "name": "liquidity",
              "type": "uint128"
            },
            {
              "internalType": "uint256",
              "name": "amount0Min",
              "type": "uint256"
            },
            {
              "internalType": "uint256",
              "name": "amount1Min",
              "type": "uint256"
            },
            {
              "internalType": "uint256",
              "name": "deadline",
              "type": "uint256"
            }
          ],
          "internalType": "struct INonfungiblePositionManager.DecreaseLiquidityParams",
          "name": "params",
          "type": "tuple"
        }
      ],
      "name": "decreaseLiquidity",
      "outputs": [
        {
          "internalType": "uint256",
          "name": "amount0",
          "type": "uint256"
        },
        {
          "internalType": "uint256",
          "name": "amount1",
          "type": "uint256"
        }
      ],
      "stateMutability": "payable",
      "type": "function"
    },
    {
      "inputs": [],
      "name": "factory",
      "outputs": [
        {
          "internalType": "address",
          "name": "",
          "type": "address"
        }
      ],
      "stateMutability": "view",
      "type": "function"
    },
    {
      "inputs": [
        {
          "internalType": "uint256",
          "name": "tokenId",
          "type": "uint256"
        }
      ],
      "name": "getApproved",
      "outputs": [
        {
          "internalType": "address",
          "name": "",
          "type": "address"
        }
      ],
      "stateMutability": "view",
      "type": "function"
    },
    {
      "inputs": [
        {
          "components": [
            {
              "internalType": "uint256",
              "name": "tokenId",
              "type": "uint256"
            },
            {
              "internalType": "uint256",
              "name": "amount0Desired",
              "type": "uint256"
            },
            {
              "internalType": "uint256",
              "name": "amount1Desired",
              "type": "uint256"
            },
            {
              "internalType": "uint256",
              "name": "amount0Min",
              "type": "uint256"
            },
            {
              "internalType": "uint256",
              "name": "amount1Min",
              "type": "uint256"
            },
            {
              "internalType": "uint256",
              "name": "deadline",
              "type": "uint256"
            }
          ],
          "internalType": "struct INonfungiblePositionManager.IncreaseLiquidityParams",
          "name": "params",
          "type": "tuple"
        }
      ],
      "name": "increaseLiquidity",
      "outputs": [
        {
          "internalType": "uint128",
          "name": "liquidity",
          "type": "uint128"
        },
        {
          "internalType": "uint256",
          "name": "amount0",
          "type": "uint256"
        },
        {
          "internalType": "uint256",
          "name": "amount1",
          "type": "uint256"
        }
      ],
      "stateMutability": "payable",
      "type": "function"
    },
    {
      "inputs": [
        {
          "internalType": "address",
          "name": "owner",
          "type": "address"
        },
        {
          "internalType": "address",
          "name": "operator",
          "type": "address"
        }
      ],
      "name": "isApprovedForAll",
      "outputs": [
        {
          "internalType": "bool",
          "name": "",
          "type": "bool"
        }
      ],
      "stateMutability": "view",
      "type": "function"
    },
    {
      "inputs": [
        {
          "components": [
            {
              "internalType": "address",
              "name": "token0",
              "type": "address"
            },
            {
              "internalType": "address",
              "name": "token1",
              "type": "address"
            },
            {
              "internalType": "uint24",
              "name": "fee",
              "type": "uint24"
            },
            {
              "internalType": "int24",
              "name": "tickLower",
              "type": "int24"
            },
            {
              "internalType": "int24",
              "name": "tickUpper",
              "type": "int24"
            },
            {
              "internalType": "uint256",
              "name": "amount0Desired",
              "type": "uint256"
            },
            {
              "internalType": "uint256",
              "name": "amount1Desired",
              "type": "uint256"
            },
            {
              "internalType": "uint256",
              "name": "amount0Min",
              "type": "uint256"
            },
            {
              "internalType": "uint256",
              "name": "amount1Min",
              "type": "uint256"
            },
            {
              "internalType": "address",
              "name": "recipient",
              "type": "address"
            },
            {
              "internalType": "uint256",
              "name": "deadline",
              "type": "uint256"
            }
          ],
          "internalType": "struct INonfungiblePositionManager.MintParams",
          "name": "params",
          "type": "tuple"
        }
      ],
      "name": "mint",
      "outputs": [
        {
          "internalType": "uint256",
          "name": "tokenId",
          "type": "uint256"
        },
        {
          "internalType": "uint128",
          "name": "liquidity",
          "type": "uint128"
        },
        {
          "internalType": "uint256",
          "name": "amount0",
          "type": "uint256"
        },
        {
          "internalType": "uint256",
          "name": "amount1",
          "type": "uint256"
        }
      ],
      "stateMutability": "payable",
      "type": "function"
    },
    {
      "inputs": [
        {
          "internalType": "bytes[]",
          "name": "data",
          "type": "bytes[]"
        }
      ],
      "name": "multicall",
      "outputs": [
        {
          "internalType": "bytes[]",
          "name": "results",
          "type": "bytes[]"
        }
      ],
      "stateMutability": "payable",
      "type": "function"
    },
    {
      "inputs": [],
      "name": "name",
      "outputs": [
        {
          "internalType": "string",
          "name": "",
          "type": "string"
        }
      ],
      "stateMutability": "view",
      "type": "function"
    },
    {
      "inputs": [
        {
          "internalType": "uint256",
          "name": "tokenId",
          "type": "uint256"
        }
      ],
      "name": "ownerOf",
      "outputs": [
        {
          "internalType": "address",
          "name": "",
          "type": "address"
        }
      ],
      "stateMutability": "view",
      "type": "function"
    },
    {
      "inputs": [
        {
          "internalType": "address",
          "name": "spender",
          "type": "address"
        },
        {
          "internalType": "uint256",
          "name": "tokenId",
          "type": "uint256"
        },
        {
          "internalType": "uint256",
          "name": "deadline",
          "type": "uint256"
        },
        {
          "internalType": "uint8",
          "name": "v",
          "type": "uint8"
        },
        {
          "internalType": "bytes32",
          "name": "r",
          "type": "bytes32"
        },
        {
          "internalType": "bytes32",
          "name": "s",
          "type": "bytes32"
        }
      ],
      "name": "permit",
      "outputs": [],
      "stateMutability": "payable",
      "type": "function"
    },
    {
      "inputs": [
        {
          "internalType": "uint256",
          "name": "tokenId",
          "type": "uint256"
        }
      ],
      "name": "positions",
      "outputs": [
        {
          "internalType": "uint96",
          "name": "nonce",
          "type": "uint96"
        },
        {
          "internalType": "address",
          "name": "operator",
          "type": "address"
        },
        {
          "internalType": "address",
          "name": "token0",
          "type": "address"
        },
        {
          "internalType": "address",
          "name": "token1",
          "type": "address"
        },
        {
          "internalType": "uint24",
          "name": "fee",
          "type": "uint24"
        },
        {
          "internalType": "int24",
          "name": "tickLower",
          "type": "int24"
        },
        {
          "internalType": "int24",
          "name": "tickUpper",
          "type": "int24"
        },
        {
          "internalType": "uint128",
          "name": "liquidity",
          "type": "uint128"
        },
        {
          "internalType": "uint256",
          "name": "feeGrowthInside0LastX128",
          "type": "uint256"
        },
        {
          "internalType": "uint256",
          "name": "feeGrowthInside1LastX128",
          "type": "uint256"
        },
        {
          "internalType": "uint128",
          "name": "tokensOwed0",
          "type": "uint128"
        },
        {
          "internalType": "uint128",
          "name": "tokensOwed1",
          "type": "uint128"
        }
      ],
      "stateMutability": "view",
      "type": "function"
    },
    {
      "inputs": [],
      "name": "refundETH",
      "outputs": [],
      "stateMutability": "payable",
      "type": "function"
    },
    {
      "inputs": [
        {
          "internalType": "address",
          "name": "from",
          "type": "address"
        },
        {
          "internalType": "address",
          "name": "to",
          "type": "address"
        },
        {
          "internalType": "uint256",
          "name": "tokenId",
          "type": "uint256"
        }
      ],
      "name": "safeTransferFrom",
      "outputs": [],
      "stateMutability": "nonpayable",
      "type": "function"
    },
    {
      "inputs": [
        {
          "internalType": "address",
          "name": "from",
          "type": "address"
        },
        {
          "internalType": "address",
          "name": "to",
          "type": "address"
        },
        {
          "internalType": "uint256",
          "name": "tokenId",
          "type": "uint256"
        },
        {
          "internalType": "bytes",
          "name": "_data",
          "type": "bytes"
        }
      ],
      "name": "safeTransferFrom",
      "outputs": [],
      "stateMutability": "nonpayable",
      "type": "function"
    },
    {
      "inputs": [
        {
          "internalType": "address",
          "name": "token",
          "type": "address"
        },
        {
          "internalType": "uint256",
          "name": "value",
          "type": "uint256"
        },
        {
          "internalType": "uint256",
          "name": "deadline",
          "type": "uint256"
        },
        {
          "internalType": "uint8",
          "name": "v",
          "type": "uint8"
        },
        {
          "internalType": "bytes32",
          "name": "r",
          "type": "bytes32"
        },
        {
          "internalType": "bytes32",
          "name": "s",
          "type": "bytes32"
        }
      ],
      "name": "selfPermit",
      "outputs": [],
      "stateMutability": "payable",
      "type": "function"
    },
    {
      "inputs": [
        {
          "internalType": "address",
          "name": "token",
          "type": "address"
        },
        {
          "internalType": "uint256",
          "name": "nonce",
          "type": "uint256"
        },
        {
          "internalType": "uint256",
          "name": "expiry",
          "type": "uint256"
        },
        {
          "internalType": "uint8",
          "name": "v",
          "type": "uint8"
        },
        {
          "internalType": "bytes32",
          "name": "r",
          "type": "bytes32"
        },
        {
          "internalType": "bytes32",
          "name": "s",
          "type": "bytes32"
        }
      ],
      "name": "selfPermitAllowed",
      "outputs": [],
      "stateMutability": "payable",
      "type": "function"
    },
    {
      "inputs": [
        {
          "internalType": "address",
          "name": "token",
          "type": "address"
        },
        {
          "internalType": "uint256",
          "name": "nonce",
          "type": "uint256"
        },
        {
          "internalType": "uint256",
          "name": "expiry",
          "type": "uint256"
        },
        {
          "internalType": "uint8",
          "name": "v",
          "type": "uint8"
        },
        {
          "internalType": "bytes32",
          "name": "r",
          "type": "bytes32"
        },
        {
          "internalType": "bytes32",
          "name": "s",
          "type": "bytes32"
        }
      ],
      "name": "selfPermitAllowedIfNecessary",
      "outputs": [],
      "stateMutability": "payable",
      "type": "function"
    },
    {
      "inputs": [
        {
          "internalType": "address",
          "name": "token",
          "type": "address"
        },
        {
          "internalType": "uint256",
          "name": "value",
          "type": "uint256"
        },
        {
          "internalType": "uint256",
          "name": "deadline",
          "type": "uint256"
        },
        {
          "internalType": "uint8",
          "name": "v",
          "type": "uint8"
        },
        {
          "internalType": "bytes32",
          "name": "r",
          "type": "bytes32"
        },
        {
          "internalType": "bytes32",
          "name": "s",
          "type": "bytes32"
        }
      ],
      "name": "selfPermitIfNecessary",
      "outputs": [],
      "stateMutability": "payable",
      "type": "function"
    },
    {
      "inputs": [
        {
          "internalType": "address",
          "name": "operator",
          "type": "address"
        },
        {
          "internalType": "bool",
          "name": "approved",
          "type": "bool"
        }
      ],
      "name": "setApprovalForAll",
      "outputs": [],
      "stateMutability": "nonpayable",
      "type": "function"
    },
    {
      "inputs": [
        {
          "internalType": "bytes4",
          "name": "interfaceId",
          "type": "bytes4"
        }
      ],
      "name": "supportsInterface",
      "outputs": [
        {
          "internalType": "bool",
          "name": "",
          "type": "bool"
        }
      ],
      "stateMutability": "view",
      "type": "function"
    },
    {
      "inputs": [
        {
          "internalType": "address",
          "name": "token",
          "type": "address"
        },
        {
          "internalType": "uint256",
          "name": "amountMinimum",
          "type": "uint256"
        },
        {
          "internalType": "address",
          "name": "recipient",
          "type": "address"
        }
      ],
      "name": "sweepToken",
      "outputs": [],
      "stateMutability": "payable",
      "type": "function"
    },
    {
      "inputs": [],
      "name": "symbol",
      "outputs": [
        {
          "internalType": "string",
          "name": "",
          "type": "string"
        }
      ],
      "stateMutability": "view",
      "type": "function"
    },
    {
      "inputs": [
        {
          "internalType": "uint256",
          "name": "index",
          "type": "uint256"
        }
      ],
      "name": "tokenByIndex",
      "outputs": [
        {
          "internalType": "uint256",
          "name": "",
          "type": "uint256"
        }
      ],
      "stateMutability": "view",
      "type": "function"
    },
    {
      "inputs": [
        {
          "internalType": "address",
          "name": "owner",
          "type": "address"
        },
        {
          "internalType": "uint256",
          "name": "index",
          "type": "uint256"
        }
      ],
      "name": "tokenOfOwnerByIndex",
      "outputs": [
        {
          "internalType": "uint256",
          "name": "",
          "type": "uint256"
        }
      ],
      "stateMutability": "view",
      "type": "function"
    },
    {
      "inputs": [
        {
          "internalType": "uint256",
          "name": "tokenId",
          "type": "uint256"
        }
      ],
      "name": "tokenURI",
      "outputs": [
        {
          "internalType": "string",
          "name": "",
          "type": "string"
        }
      ],
      "stateMutability": "view",
      "type": "function"
    },
    {
      "inputs": [],
      "name": "totalSupply",
      "outputs": [
        {
          "internalType": "uint256",
          "name": "",
          "type": "uint256"
        }
      ],
      "stateMutability": "view",
      "type": "function"
    },
    {
      "inputs": [
        {
          "internalType": "address",
          "name": "from",
          "type": "address"
        },
        {
          "internalType": "address",
          "name": "to",
          "type": "address"
        },
        {
          "internalType": "uint256",
          "name": "tokenId",
          "type": "uint256"
        }
      ],
      "name": "transferFrom",
      "outputs": [],
      "stateMutability": "nonpayable",
      "type": "function"
    },
    {
      "inputs": [
        {
          "internalType": "uint256",
          "name": "amountMinimum",
          "type": "uint256"
        },
        {
          "internalType": "address",
          "name": "recipient",
          "type": "address"
        }
      ],
      "name": "unwrapWETH9",
      "outputs": [],
      "stateMutability": "payable",
      "type": "function"
    },
    {
      "inputs": [
        {
          "internalType": "uint256",
          "name": "amount0Owed",
          "type": "uint256"
        },
        {
          "internalType": "uint256",
          "name": "amount1Owed",
          "type": "uint256"
        },
        {
          "internalType": "bytes",
          "name": "data",
          "type": "bytes"
        }
      ],
      "name": "zer0dexV3MintCallback",
      "outputs": [],
      "stateMutability": "nonpayable",
      "type": "function"
    },
    {
      "stateMutability": "payable",
      "type": "receive"
    }
  ],
  "bytecode": "0x610100604052600d80546001600160b01b0319166001176001600160b01b0316600160b01b1790553480156200003457600080fd5b5060405162005d5b38038062005d5b8339810160408190526200005791620002e3565b82826040518060400160405280601881526020017f5a65723064657820563320506f736974696f6e73204e46540000000000000000815250604051806040016040528060078152602001665a4552302d563360c81b815250604051806040016040528060018152602001603160f81b8152508282620000e36301ffc9a760e01b6200019560201b60201c565b8151620000f89060069060208501906200021a565b5080516200010e9060079060208401906200021a565b50620001216380ac58cd60e01b62000195565b62000133635b5e139f60e01b62000195565b6200014563780e9d6360e01b62000195565b5050825160209384012060805280519083012060a052506001600160601b0319606093841b811660c0529190921b1660e05281516200018b91600e91908401906200021a565b50505050620003ca565b6001600160e01b03198082161415620001f5576040805162461bcd60e51b815260206004820152601c60248201527f4552433136353a20696e76616c696420696e7465726661636520696400000000604482015290519081900360640190fd5b6001600160e01b0319166000908152602081905260409020805460ff19166001179055565b828054600181600116156101000203166002900490600052602060002090601f0160209004810192826200025257600085556200029d565b82601f106200026d57805160ff19168380011785556200029d565b828001600101855582156200029d579182015b828111156200029d57825182559160200191906001019062000280565b50620002ab929150620002af565b5090565b5b80821115620002ab5760008155600101620002b0565b80516001600160a01b0381168114620002de57600080fd5b919050565b600080600060608486031215620002f8578283fd5b6200030384620002c6565b9250602062000314818601620002c6565b60408601519093506001600160401b038082111562000331578384fd5b818701915087601f83011262000345578384fd5b8151818111156200035257fe5b604051601f8201601f19168101850183811182821017156200037057fe5b60405281815283820185018a101562000387578586fd5b8592505b81831015620003aa57838301850151818401860152918401916200038b565b81831115620003bb57858583830101525b80955050505050509250925092565b60805160a05160c05160601c60e05160601c615919620004426000398061021952806115e952806116d4528061175c528061378a52806137d052806138445250806109e55280610d055280610dcc52806117d152806127eb5280612b4452806133475250806113e95250806113c852506159196000f3fe6080604052600436106102095760003560e01c80636352211e11610113578063a4a78f0c116100ab578063c87b56dd1161006f578063c87b56dd1461062e578063df2ab5bb1461064e578063e985e9c514610661578063f3995c6714610681578063fc6f78651461069457610279565b8063a4a78f0c146105b3578063ac9650d8146105c6578063b88d4fde146105e6578063c2e3140a14610606578063c45a01551461061957610279565b80636352211e1461049b57806363ab844c146104bb5780636c0360eb146104db57806370a08231146104f05780637ac2ff7b14610510578063883164561461052357806395d89b411461054657806399fbab881461055b578063a22cb4651461059357610279565b806323b872dd116101a157806342966c681161016557806342966c681461042d5780634659a4941461044057806349404b7c146104535780634aa4a4fc146104665780634f6ccce71461047b57610279565b806323b872dd146103a35780632f745c59146103c357806330adf81f146103e35780633644e515146103f857806342842e0e1461040d57610279565b806301ffc9a71461027e57806306fdde03146102b4578063081812fc146102d6578063095ea7b3146103035780630c49ccbe1461032357806312210e8a1461034457806313ead5621461034c57806318160ddd1461035f578063219f5d171461038157610279565b3661027957336001600160a01b037f00000000000000000000000000000000000000000000000000000000000000001614610277576040805162461bcd60e51b81526020600482015260096024820152684e6f7420574554483960b81b604482015290519081900360640190fd5b005b600080fd5b34801561028a57600080fd5b5061029e610299366004614e1f565b6106a7565b6040516102ab9190615360565b60405180910390f35b3480156102c057600080fd5b506102c96106ca565b6040516102ab919061539a565b3480156102e257600080fd5b506102f66102f1366004615117565b610760565b6040516102ab9190615240565b34801561030f57600080fd5b5061027761031e366004614cea565b6107b3565b610336610331366004614ee3565b610889565b6040516102ab929190615521565b610277610cd1565b6102f661035a366004614b7e565b610ce3565b34801561036b57600080fd5b50610374610fd7565b6040516102ab919061536b565b61039461038f366004614ef4565b610fe8565b6040516102ab939291906154dc565b3480156103af57600080fd5b506102776103be366004614bd7565b6112fd565b3480156103cf57600080fd5b506103746103de366004614cea565b611354565b3480156103ef57600080fd5b5061037461137f565b34801561040457600080fd5b506103746113a3565b34801561041957600080fd5b50610277610428366004614bd7565b611461565b61027761043b366004615117565b61147c565b61027761044e366004614d56565b61154b565b61027761046136600461512f565b6115e5565b34801561047257600080fd5b506102f661175a565b34801561048757600080fd5b50610374610496366004615117565b61177e565b3480156104a757600080fd5b506102f66104b6366004615117565b611794565b3480156104c757600080fd5b506102776104d6366004615176565b6117bc565b3480156104e757600080fd5b506102c961183a565b3480156104fc57600080fd5b5061037461050b366004614b2a565b61183f565b61027761051e366004614d56565b6118a7565b610536610531366004614faf565b611c99565b6040516102ab94939291906154fd565b34801561055257600080fd5b506102c96121b1565b34801561056757600080fd5b5061057b610576366004615117565b612212565b6040516102ab9c9b9a9998979695949392919061552f565b34801561059f57600080fd5b506102776105ae366004614cbd565b612423565b6102776105c1366004614d56565b612524565b6105d96105d4366004614db1565b6125bd565b6040516102ab9190615300565b3480156105f257600080fd5b50610277610601366004614c17565b6126fc565b610277610614366004614d56565b61275a565b34801561062557600080fd5b506102f66127e9565b34801561063a57600080fd5b506102c9610649366004615117565b61280d565b61027761065c366004614d15565b6128b3565b34801561066d57600080fd5b5061029e61067c366004614b46565b61298b565b61027761068f366004614d56565b6129b9565b6103366106a2366004614ecc565b612a2b565b6001600160e01b0319811660009081526020819052604090205460ff165b919050565b60068054604080516020601f60026000196101006001881615020190951694909404938401819004810282018101909252828152606093909290918301828280156107565780601f1061072b57610100808354040283529160200191610756565b820191906000526020600020905b81548152906001019060200180831161073957829003601f168201915b5050505050905090565b600061076b82612ef6565b6107905760405162461bcd60e51b8152600401610787906153d3565b60405180910390fd5b506000908152600c6020526040902054600160601b90046001600160a01b031690565b60006107be82611794565b9050806001600160a01b0316836001600160a01b031614156108115760405162461bcd60e51b81526004018080602001828103825260218152602001806158bb6021913960400191505060405180910390fd5b806001600160a01b0316610823612f03565b6001600160a01b0316148061083f575061083f8161067c612f03565b61087a5760405162461bcd60e51b81526004018080602001828103825260388152602001806157c56038913960400191505060405180910390fd5b6108848383612f07565b505050565b60008082356108983382612f7d565b6108b45760405162461bcd60e51b8152600401610787906153ad565b8360800135806108c2613019565b111561090b576040805162461bcd60e51b8152602060048201526013602482015272151c985b9cd858dd1a5bdb881d1bdbc81bdb19606a1b604482015290519081900360640190fd5b600061091d6040870160208801614fc1565b6001600160801b03161161093057600080fd5b84356000908152600c602090815260409182902060018101549092600160801b9091046001600160801b03169161096b918901908901614fc1565b6001600160801b0316816001600160801b0316101561098957600080fd5b6001828101546001600160501b03166000908152600b60209081526040808320815160608101835281546001600160a01b039081168252919095015490811692850192909252600160a01b90910462ffffff1690830152610a0a7f00000000000000000000000000000000000000000000000000000000000000008361301d565b60018501549091506001600160a01b0382169063a34123a790600160501b8104600290810b91600160681b9004900b610a4960408e0160208f01614fc1565b6040518463ffffffff1660e01b8152600401610a6793929190615374565b6040805180830381600087803b158015610a8057600080fd5b505af1158015610a94573d6000803e3d6000fd5b505050506040513d601f19601f82011682018060405250810190610ab89190615153565b909850965060408901358810801590610ad5575088606001358710155b610af15760405162461bcd60e51b81526004016107879061541f565b6001840154600090610b1a903090600160501b8104600290810b91600160681b9004900b6130fc565b9050600080836001600160a01b031663514ea4bf846040518263ffffffff1660e01b8152600401610b4b919061536b565b60a06040518083038186803b158015610b6357600080fd5b505afa158015610b77573d6000803e3d6000fd5b505050506040513d601f19601f82011682018060405250810190610b9b919061500b565b50509250925050610bc087600201548303876001600160801b0316600160801b613151565b6004880180546001600160801b03198116928e016001600160801b039182160181169290921790556003880154610c0191908303908816600160801b613151565b6004880180546001600160801b03808216938e01600160801b9283900482160116029190911790556002870182905560038701819055610c4760408d0160208e01614fc1565b86038760010160106101000a8154816001600160801b0302191690836001600160801b031602179055508b600001357f26f6a048ee9138f2c0ce266f322cb99228e8d619ae2bff30c67f8dcf9d2377b48d6020016020810190610caa9190614fc1565b8d8d604051610cbb939291906154dc565b60405180910390a2505050505050505050915091565b4715610ce157610ce13347613200565b565b6000836001600160a01b0316856001600160a01b031610610d0357600080fd5b7f00000000000000000000000000000000000000000000000000000000000000006001600160a01b0316631698ee828686866040518463ffffffff1660e01b815260040180846001600160a01b03168152602001836001600160a01b031681526020018262ffffff168152602001935050505060206040518083038186803b158015610d8e57600080fd5b505afa158015610da2573d6000803e3d6000fd5b505050506040513d6020811015610db857600080fd5b505190506001600160a01b038116610eee577f00000000000000000000000000000000000000000000000000000000000000006001600160a01b031663a16712958686866040518463ffffffff1660e01b815260040180846001600160a01b03168152602001836001600160a01b031681526020018262ffffff1681526020019350505050602060405180830381600087803b158015610e5757600080fd5b505af1158015610e6b573d6000803e3d6000fd5b505050506040513d6020811015610e8157600080fd5b50516040805163f637731d60e01b81526001600160a01b03858116600483015291519293509083169163f637731d9160248082019260009290919082900301818387803b158015610ed157600080fd5b505af1158015610ee5573d6000803e3d6000fd5b50505050610fcf565b6000816001600160a01b0316633850c7bd6040518163ffffffff1660e01b815260040160e06040518083038186803b158015610f2957600080fd5b505afa158015610f3d573d6000803e3d6000fd5b505050506040513d60e0811015610f5357600080fd5b505190506001600160a01b038116610fcd57816001600160a01b031663f637731d846040518263ffffffff1660e01b815260040180826001600160a01b03168152602001915050600060405180830381600087803b158015610fb457600080fd5b505af1158015610fc8573d6000803e3d6000fd5b505050505b505b949350505050565b6000610fe360026132ef565b905090565b60008060008360a0013580610ffb613019565b1115611044576040805162461bcd60e51b8152602060048201526013602482015272151c985b9cd858dd1a5bdb881d1bdbc81bdb19606a1b604482015290519081900360640190fd5b84356000908152600c602090815260408083206001808201546001600160501b0381168652600b855283862084516060808201875282546001600160a01b039081168352929094015480831682890190815262ffffff600160a01b9092048216838901908152885161014081018a528451861681529151909416818a0152925116828701523082850152600160501b8304600290810b810b608080850191909152600160681b909404810b900b60a0830152958c013560c0820152938b013560e0850152908a01356101008401528901356101208301529290611126906132fa565b6001870154939a5091985096509150600090611159903090600160501b8104600290810b91600160681b9004900b6130fc565b9050600080836001600160a01b031663514ea4bf846040518263ffffffff1660e01b815260040161118a919061536b565b60a06040518083038186803b1580156111a257600080fd5b505afa1580156111b6573d6000803e3d6000fd5b505050506040513d601f19601f820116820180604052508101906111da919061500b565b50509250925050611216866002015483038760010160109054906101000a90046001600160801b03166001600160801b0316600160801b613151565b6004870180546001600160801b0380821690930183166001600160801b03199091161790556003870154600188015461125d9291840391600160801b918290041690613151565b6004870180546001600160801b03600160801b80830482169094018116840291811691909117909155600288018490556003880183905560018801805483810483168e018316909302929091169190911790556040518b35907f3067048beee31b25b2f1681f88dac838c8bba36af25bfb2b7cf7473a5847e35f906112e7908d908d908d906154dc565b60405180910390a2505050505050509193909250565b61130e611308612f03565b82612f7d565b6113495760405162461bcd60e51b81526004018080602001828103825260318152602001806158dc6031913960400191505060405180910390fd5b610884838383613535565b6001600160a01b0382166000908152600160205260408120611376908361366f565b90505b92915050565b7f49ecf333e5b8c95c40fdafc95c1ad136e8914a8fb55e9dc8bb01eaa83a2df9ad81565b60007f8b73c3c69bb8fe3d512ecc4cf759cc79239f7b179b0ffacaa9a75d522b39400f7f00000000000000000000000000000000000000000000000000000000000000007f000000000000000000000000000000000000000000000000000000000000000061141061367b565b3060405160200180868152602001858152602001848152602001838152602001826001600160a01b031681526020019550505050505060405160208183030381529060405280519060200120905090565b610884838383604051806020016040528060008152506126fc565b806114873382612f7d565b6114a35760405162461bcd60e51b8152600401610787906153ad565b6000828152600c602052604090206001810154600160801b90046001600160801b03161580156114de575060048101546001600160801b0316155b80156114fc57506004810154600160801b90046001600160801b0316155b6115185760405162461bcd60e51b815260040161078790615477565b6000838152600c60205260408120818155600181018290556002810182905560038101829055600401556108848361367f565b604080516323f2ebc360e21b815233600482015230602482015260448101879052606481018690526001608482015260ff851660a482015260c4810184905260e4810183905290516001600160a01b03881691638fcbaf0c9161010480830192600092919082900301818387803b1580156115c557600080fd5b505af11580156115d9573d6000803e3d6000fd5b50505050505050505050565b60007f00000000000000000000000000000000000000000000000000000000000000006001600160a01b03166370a08231306040518263ffffffff1660e01b815260040180826001600160a01b0316815260200191505060206040518083038186803b15801561165457600080fd5b505afa158015611668573d6000803e3d6000fd5b505050506040513d602081101561167e57600080fd5b50519050828110156116cc576040805162461bcd60e51b8152602060048201526012602482015271496e73756666696369656e7420574554483960701b604482015290519081900360640190fd5b8015610884577f00000000000000000000000000000000000000000000000000000000000000006001600160a01b0316632e1a7d4d826040518263ffffffff1660e01b815260040180828152602001915050600060405180830381600087803b15801561173857600080fd5b505af115801561174c573d6000803e3d6000fd5b505050506108848282613200565b7f000000000000000000000000000000000000000000000000000000000000000081565b60008061178c60028461373a565b509392505050565b6000611379826040518060600160405280602981526020016158276029913960029190613758565b60006117ca82840184614f05565b90506117fa7f00000000000000000000000000000000000000000000000000000000000000008260000151613765565b50841561181557805151602082015161181591903388613788565b83156118335761183381600001516020015182602001513387613788565b5050505050565b606090565b60006001600160a01b0382166118865760405162461bcd60e51b815260040180806020018281038252602a8152602001806157fd602a913960400191505060405180910390fd5b6001600160a01b0382166000908152600160205260409020611379906132ef565b836118b0613019565b11156118f4576040805162461bcd60e51b815260206004820152600e60248201526d14195c9b5a5d08195e1c1a5c995960921b604482015290519081900360640190fd5b60006118fe6113a3565b7f49ecf333e5b8c95c40fdafc95c1ad136e8914a8fb55e9dc8bb01eaa83a2df9ad888861192a81613918565b604080516020808201969096526001600160a01b03909416848201526060840192909252608083015260a08083018a90528151808403909101815260c08301825280519084012061190160f01b60e084015260e2830194909452610102808301949094528051808303909401845261012290910190528151910120905060006119b287611794565b9050806001600160a01b0316886001600160a01b03161415611a055760405162461bcd60e51b81526004018080602001828103825260278152602001806157286027913960400191505060405180910390fd5b611a0e8161394d565b15611b76576040805160208082018790528183018690526001600160f81b031960f889901b1660608301528251604181840301815260618301808552630b135d3f60e11b90526065830186815260858401948552815160a585015281516001600160a01b03871695631626ba7e958995919260c59091019185019080838360005b83811015611aa7578181015183820152602001611a8f565b50505050905090810190601f168015611ad45780820380516001836020036101000a031916815260200191505b50935050505060206040518083038186803b158015611af257600080fd5b505afa158015611b06573d6000803e3d6000fd5b505050506040513d6020811015611b1c57600080fd5b50516001600160e01b031916630b135d3f60e11b14611b71576040805162461bcd60e51b815260206004820152600c60248201526b155b985d5d1a1bdc9a5e995960a21b604482015290519081900360640190fd5b611c85565b600060018387878760405160008152602001604052604051808581526020018460ff1681526020018381526020018281526020019450505050506020604051602081039080840390855afa158015611bd2573d6000803e3d6000fd5b5050604051601f1901519150506001600160a01b038116611c2e576040805162461bcd60e51b8152602060048201526011602482015270496e76616c6964207369676e617475726560781b604482015290519081900360640190fd5b816001600160a01b0316816001600160a01b031614611c83576040805162461bcd60e51b815260206004820152600c60248201526b155b985d5d1a1bdc9a5e995960a21b604482015290519081900360640190fd5b505b611c8f8888612f07565b5050505050505050565b60008060008084610140013580611cae613019565b1115611cf7576040805162461bcd60e51b8152602060048201526013602482015272151c985b9cd858dd1a5bdb881d1bdbc81bdb19606a1b604482015290519081900360640190fd5b604080516101408101909152600090611dc39080611d1860208b018b614b2a565b6001600160a01b03168152602001896020016020810190611d399190614b2a565b6001600160a01b03168152602001611d5760608b0160408c016150fd565b62ffffff168152306020820152604001611d7760808b0160608c01614e47565b60020b8152602001611d8f60a08b0160808c01614e47565b60020b81526020018960a0013581526020018960c0013581526020018960e0013581526020018961010001358152506132fa565b92975090955093509050611e10611de261014089016101208a01614b2a565b600d80546001600160b01b0319811660016001600160b01b0392831690810190921617909155975087613953565b6000611e3b30611e2660808b0160608c01614e47565b611e3660a08c0160808d01614e47565b6130fc565b9050600080836001600160a01b031663514ea4bf846040518263ffffffff1660e01b8152600401611e6c919061536b565b60a06040518083038186803b158015611e8457600080fd5b505afa158015611e98573d6000803e3d6000fd5b505050506040513d601f19601f82011682018060405250810190611ebc919061500b565b505092509250506000611f358560405180606001604052808e6000016020810190611ee79190614b2a565b6001600160a01b031681526020018e6020016020810190611f089190614b2a565b6001600160a01b031681526020018e6040016020810190611f2991906150fd565b62ffffff169052613a6f565b905060405180610140016040528060006001600160601b0316815260200160006001600160a01b03168152602001826001600160501b031681526020018c6060016020810190611f859190614e47565b60020b8152602001611f9d60a08e0160808f01614e47565b60020b81526020018a6001600160801b0316815260200184815260200183815260200160006001600160801b0316815260200160006001600160801b0316815250600c60008c815260200190815260200160002060008201518160000160006101000a8154816001600160601b0302191690836001600160601b03160217905550602082015181600001600c6101000a8154816001600160a01b0302191690836001600160a01b0316021790555060408201518160010160006101000a8154816001600160501b0302191690836001600160501b03160217905550606082015181600101600a6101000a81548162ffffff021916908360020b62ffffff160217905550608082015181600101600d6101000a81548162ffffff021916908360020b62ffffff16021790555060a08201518160010160106101000a8154816001600160801b0302191690836001600160801b0316021790555060c0820151816002015560e082015181600301556101008201518160040160006101000a8154816001600160801b0302191690836001600160801b031602179055506101208201518160040160106101000a8154816001600160801b0302191690836001600160801b03160217905550905050897f3067048beee31b25b2f1681f88dac838c8bba36af25bfb2b7cf7473a5847e35f8a8a8a60405161219c939291906154dc565b60405180910390a25050505050509193509193565b60078054604080516020601f60026000196101006001881615020190951694909404938401819004810282018101909252828152606093909290918301828280156107565780601f1061072b57610100808354040283529160200191610756565b6000818152600c6020908152604080832081516101408101835281546001600160601b03811682526001600160a01b03600160601b909104169381019390935260018101546001600160501b038116928401839052600160501b8104600290810b810b810b6060860152600160681b8204810b810b810b60808601526001600160801b03600160801b92839004811660a08701529083015460c0860152600383015460e0860152600490920154808316610100860152041661012083015282918291829182918291829182918291829182918291906123035760405162461bcd60e51b81526004016107879061544d565b6000600b600083604001516001600160501b03166001600160501b031681526020019081526020016000206040518060600160405290816000820160009054906101000a90046001600160a01b03166001600160a01b03166001600160a01b031681526020016001820160009054906101000a90046001600160a01b03166001600160a01b03166001600160a01b031681526020016001820160149054906101000a900462ffffff1662ffffff1662ffffff1681525050905081600001518260200151826000015183602001518460400151866060015187608001518860a001518960c001518a60e001518b61010001518c61012001519d509d509d509d509d509d509d509d509d509d509d509d50505091939597999b5091939597999b565b61242b612f03565b6001600160a01b0316826001600160a01b0316141561248d576040805162461bcd60e51b815260206004820152601960248201527822a9219b99189d1030b8383937bb32903a379031b0b63632b960391b604482015290519081900360640190fd5b806005600061249a612f03565b6001600160a01b03908116825260208083019390935260409182016000908120918716808252919093529120805460ff1916921515929092179091556124de612f03565b6001600160a01b03167f17307eab39ab6107e8899845ad3d59bd9653f200f220920489ca2b5937696c318360405180821515815260200191505060405180910390a35050565b60408051636eb1769f60e11b81523360048201523060248201529051600019916001600160a01b0389169163dd62ed3e91604480820192602092909190829003018186803b15801561257557600080fd5b505afa158015612589573d6000803e3d6000fd5b505050506040513d602081101561259f57600080fd5b505110156125b5576125b586868686868661154b565b505050505050565b6060816001600160401b03811180156125d557600080fd5b5060405190808252806020026020018201604052801561260957816020015b60608152602001906001900390816125f45790505b50905060005b828110156126f5576000803086868581811061262757fe5b905060200281019061263991906155c9565b604051612647929190615230565b600060405180830381855af49150503d8060008114612682576040519150601f19603f3d011682016040523d82523d6000602084013e612687565b606091505b5091509150816126d3576044815110156126a057600080fd5b600481019050808060200190518101906126ba9190614e63565b60405162461bcd60e51b8152600401610787919061539a565b808484815181106126e057fe5b6020908102919091010152505060010161260f565b5092915050565b61270d612707612f03565b83612f7d565b6127485760405162461bcd60e51b81526004018080602001828103825260318152602001806158dc6031913960400191505060405180910390fd5b61275484848484613b51565b50505050565b60408051636eb1769f60e11b8152336004820152306024820152905186916001600160a01b0389169163dd62ed3e91604480820192602092909190829003018186803b1580156127a957600080fd5b505afa1580156127bd573d6000803e3d6000fd5b505050506040513d60208110156127d357600080fd5b505110156125b5576125b58686868686866129b9565b7f000000000000000000000000000000000000000000000000000000000000000081565b606061281882612ef6565b61282157600080fd5b600e805460408051602060026001851615610100026000190190941693909304601f810184900484028201840190925281815292918301828280156128a75780601f1061287c576101008083540402835291602001916128a7565b820191906000526020600020905b81548152906001019060200180831161288a57829003601f168201915b50505050509050919050565b6000836001600160a01b03166370a08231306040518263ffffffff1660e01b815260040180826001600160a01b0316815260200191505060206040518083038186803b15801561290257600080fd5b505afa158015612916573d6000803e3d6000fd5b505050506040513d602081101561292c57600080fd5b505190508281101561297a576040805162461bcd60e51b815260206004820152601260248201527124b739bab33334b1b4b2b73a103a37b5b2b760711b604482015290519081900360640190fd5b801561275457612754848383613ba3565b6001600160a01b03918216600090815260056020908152604080832093909416825291909152205460ff1690565b6040805163d505accf60e01b8152336004820152306024820152604481018790526064810186905260ff8516608482015260a4810184905260c4810183905290516001600160a01b0388169163d505accf9160e480830192600092919082900301818387803b1580156115c557600080fd5b6000808235612a3a3382612f7d565b612a565760405162461bcd60e51b8152600401610787906153ad565b6000612a686060860160408701614fc1565b6001600160801b03161180612a9557506000612a8a6080860160608701614fc1565b6001600160801b0316115b612a9e57600080fd5b600080612ab16040870160208801614b2a565b6001600160a01b031614612ad457612acf6040860160208701614b2a565b612ad6565b305b85356000908152600c602090815260408083206001808201546001600160501b03168552600b8452828520835160608101855281546001600160a01b039081168252919092015490811694820194909452600160a01b90930462ffffff169183019190915292935090612b697f00000000000000000000000000000000000000000000000000000000000000008361301d565b600484015460018501549192506001600160801b0380821692600160801b9283900482169290041615612d5f57600185015460405163a34123a760e01b81526001600160a01b0385169163a34123a791612be091600160501b8104600290810b92600160681b909204900b90600090600401615374565b6040805180830381600087803b158015612bf957600080fd5b505af1158015612c0d573d6000803e3d6000fd5b505050506040513d601f19601f82011682018060405250810190612c319190615153565b5050600185015460009081906001600160a01b0386169063514ea4bf90612c6f903090600160501b8104600290810b91600160681b9004900b6130fc565b6040518263ffffffff1660e01b8152600401612c8b919061536b565b60a06040518083038186803b158015612ca357600080fd5b505afa158015612cb7573d6000803e3d6000fd5b505050506040513d601f19601f82011682018060405250810190612cdb919061500b565b50509250925050612d17876002015483038860010160109054906101000a90046001600160801b03166001600160801b0316600160801b613151565b84019350612d50876003015482038860010160109054906101000a90046001600160801b03166001600160801b0316600160801b613151565b60028801929092556003870155015b6000806001600160801b038416612d7c60608e0160408f01614fc1565b6001600160801b031611612d9f57612d9a60608d0160408e01614fc1565b612da1565b835b836001600160801b03168d6060016020810190612dbe9190614fc1565b6001600160801b031611612de157612ddc60808e0160608f01614fc1565b612de3565b835b60018901546040516309e3d67b60e31b81529294509092506001600160a01b03871691634f1eb3d891612e36918c91600160501b8104600290810b92600160681b909204900b9088908890600401615299565b6040805180830381600087803b158015612e4f57600080fd5b505af1158015612e63573d6000803e3d6000fd5b505050506040513d601f19601f82011682018060405250810190612e879190614fdd565b6004890180546001600160801b03196001600160801b03918216600160801b878a0384160217168689038216179091556040519281169d50169a508c35907f40d0efd1a53d60ecbf40971b9daf7dc90178c3aadc7aab1765632738fa8b8f0190610cbb908b90869086906152d6565b6000611379600283613cea565b3390565b6000818152600c6020526040902080546001600160601b0316600160601b6001600160a01b038516908102919091179091558190612f4482611794565b6001600160a01b03167f8c5be1e5ebec7d5bd14f71427d1e84f3dd0314c0f7b2291e5b200ac8c7c3b92560405160405180910390a45050565b6000612f8882612ef6565b612fc35760405162461bcd60e51b815260040180806020018281038252602c815260200180615799602c913960400191505060405180910390fd5b6000612fce83611794565b9050806001600160a01b0316846001600160a01b031614806130095750836001600160a01b0316612ffe84610760565b6001600160a01b0316145b80610fcf5750610fcf818561298b565b4290565b600081602001516001600160a01b031682600001516001600160a01b03161061304557600080fd5b50805160208083015160409384015184516001600160a01b0394851681850152939091168385015262ffffff166060808401919091528351808403820181526080840185528051908301206001600160f81b031960a085015294901b6001600160601b03191660a183015260b58201939093527f9924cf4430a7fdab68f1bbc1f001e17a98f18d18b73a230792933c733c00cdb660d5808301919091528251808303909101815260f5909101909152805191012090565b604080516001600160601b0319606086901b16602080830191909152600285810b60e890811b60348501529085900b901b60378301528251601a818403018152603a90920190925280519101205b9392505050565b6000808060001985870986860292508281109083900303905080613187576000841161317c57600080fd5b50829004905061314a565b80841161319357600080fd5b6000848688096000868103871696879004966002600389028118808a02820302808a02820302808a02820302808a02820302808a02820302808a02909103029181900381900460010186841190950394909402919094039290920491909117919091029150509392505050565b604080516000808252602082019092526001600160a01b0384169083906040518082805190602001908083835b6020831061324c5780518252601f19909201916020918201910161322d565b6001836020036101000a03801982511681845116808217855250505050505090500191505060006040518083038185875af1925050503d80600081146132ae576040519150601f19603f3d011682016040523d82523d6000602084013e6132b3565b606091505b5050905080610884576040805162461bcd60e51b815260206004820152600360248201526253544560e81b604482015290519081900360640190fd5b600061137982613cf6565b6000806000806000604051806060016040528087600001516001600160a01b0316815260200187602001516001600160a01b03168152602001876040015162ffffff16815250905061336c7f00000000000000000000000000000000000000000000000000000000000000008261301d565b91506000826001600160a01b0316633850c7bd6040518163ffffffff1660e01b815260040160e06040518083038186803b1580156133a957600080fd5b505afa1580156133bd573d6000803e3d6000fd5b505050506040513d601f19601f820116820180604052508101906133e1919061506c565b505050505050905060006133f88860800151613cfa565b905060006134098960a00151613cfa565b90506134208383838c60c001518d60e00151614022565b9750505050816001600160a01b0316633c8a7d8d876060015188608001518960a00151896040518060400160405280888152602001336001600160a01b0316815250604051602001613472919061549c565b6040516020818303038152906040526040518663ffffffff1660e01b81526004016134a1959493929190615254565b6040805180830381600087803b1580156134ba57600080fd5b505af11580156134ce573d6000803e3d6000fd5b505050506040513d601f19601f820116820180604052508101906134f29190615153565b6101008801519195509350841080159061351157508561012001518310155b61352d5760405162461bcd60e51b81526004016107879061541f565b509193509193565b826001600160a01b031661354882611794565b6001600160a01b03161461358d5760405162461bcd60e51b81526004018080602001828103825260298152602001806158726029913960400191505060405180910390fd5b6001600160a01b0382166135d25760405162461bcd60e51b815260040180806020018281038252602481526020018061574f6024913960400191505060405180910390fd5b6135dd838383610884565b6135e8600082612f07565b6001600160a01b038316600090815260016020526040902061360a90826140e6565b506001600160a01b038216600090815260016020526040902061362d90826140f2565b5061363a600282846140fe565b5080826001600160a01b0316846001600160a01b031660008051602061589b83398151915260405160405180910390a4505050565b60006113768383614114565b4690565b600061368a82611794565b905061369881600084610884565b6136a3600083612f07565b60008281526008602052604090205460026000196101006001841615020190911604156136e15760008281526008602052604081206136e191614a9a565b6001600160a01b038116600090815260016020526040902061370390836140e6565b5061370f600283614178565b5060405182906000906001600160a01b0384169060008051602061589b833981519152908390a45050565b60008080806137498686614184565b909450925050505b9250929050565b6000610fcf8484846141ff565b6000613771838361301d565b9050336001600160a01b0382161461137957600080fd5b7f00000000000000000000000000000000000000000000000000000000000000006001600160a01b0316846001600160a01b03161480156137c95750804710155b156138eb577f00000000000000000000000000000000000000000000000000000000000000006001600160a01b031663d0e30db0826040518263ffffffff1660e01b81526004016000604051808303818588803b15801561382957600080fd5b505af115801561383d573d6000803e3d6000fd5b50505050507f00000000000000000000000000000000000000000000000000000000000000006001600160a01b031663a9059cbb83836040518363ffffffff1660e01b815260040180836001600160a01b0316815260200182815260200192505050602060405180830381600087803b1580156138b957600080fd5b505af11580156138cd573d6000803e3d6000fd5b505050506040513d60208110156138e357600080fd5b506127549050565b6001600160a01b03831630141561390c57613907848383613ba3565b612754565b612754848484846142c9565b6000908152600c6020526040902080546001600160601b0319811660016001600160601b039283169081019092161790915590565b3b151590565b6001600160a01b0382166139ae576040805162461bcd60e51b815260206004820181905260248201527f4552433732313a206d696e7420746f20746865207a65726f2061646472657373604482015290519081900360640190fd5b6139b781612ef6565b15613a09576040805162461bcd60e51b815260206004820152601c60248201527f4552433732313a20746f6b656e20616c7265616479206d696e74656400000000604482015290519081900360640190fd5b613a1560008383610884565b6001600160a01b0382166000908152600160205260409020613a3790826140f2565b50613a44600282846140fe565b5060405181906001600160a01b0384169060009060008051602061589b833981519152908290a45050565b6001600160a01b0382166000908152600a60205260409020546001600160501b0316806113795750600d805460016001600160501b03600160b01b8084048216838101909216026001600160b01b03909316929092179092556001600160a01b038085166000908152600a60209081526040808320805469ffffffffffffffffffff191686179055848352600b825291829020865181549085166001600160a01b031991821617825591870151950180549287015162ffffff16600160a01b0262ffffff60a01b19969094169290911691909117939093161790915592915050565b613b5c848484613535565b613b6884848484614419565b6127545760405162461bcd60e51b81526004018080602001828103825260328152602001806156f66032913960400191505060405180910390fd5b604080516001600160a01b038481166024830152604480830185905283518084039091018152606490920183526020820180516001600160e01b031663a9059cbb60e01b1781529251825160009485949389169392918291908083835b60208310613c1f5780518252601f199092019160209182019101613c00565b6001836020036101000a0380198251168184511680821785525050505050509050019150506000604051808303816000865af19150503d8060008114613c81576040519150601f19603f3d011682016040523d82523d6000602084013e613c86565b606091505b5091509150818015613cb4575080511580613cb45750808060200190516020811015613cb157600080fd5b50515b611833576040805162461bcd60e51b815260206004820152600260248201526114d560f21b604482015290519081900360640190fd5b60006113768383614581565b5490565b60008060008360020b12613d11578260020b613d19565b8260020b6000035b9050620d89e8811115613d57576040805162461bcd60e51b81526020600482015260016024820152601560fa1b604482015290519081900360640190fd5b600060018216613d6b57600160801b613d7d565b6ffffcb933bd6fad37aa2d162d1a5940015b6001600160881b031690506002821615613da7576ffff97272373d413259a46990580e213a0260801c5b6004821615613dc6576ffff2e50f5f656932ef12357cf3c7fdcc0260801c5b6008821615613de5576fffe5caca7e10e4e61c3624eaa0941cd00260801c5b6010821615613e04576fffcb9843d60f6159c9db58835c9266440260801c5b6020821615613e23576fff973b41fa98c081472e6896dfb254c00260801c5b6040821615613e42576fff2ea16466c96a3843ec78b326b528610260801c5b6080821615613e61576ffe5dee046a99a2a811c461f1969c30530260801c5b610100821615613e81576ffcbe86c7900a88aedcffc83b479aa3a40260801c5b610200821615613ea1576ff987a7253ac413176f2b074cf7815e540260801c5b610400821615613ec1576ff3392b0822b70005940c7a398e4b70f30260801c5b610800821615613ee1576fe7159475a2c29b7443b29c7fa6e889d90260801c5b611000821615613f01576fd097f3bdfd2022b8845ad8f792aa58250260801c5b612000821615613f21576fa9f746462d870fdf8a65dc1f90e061e50260801c5b614000821615613f41576f70d869a156d2a1b890bb3df62baf32f70260801c5b618000821615613f61576f31be135f97d08fd981231505542fcfa60260801c5b62010000821615613f82576f09aa508b5b7a84e1c677de54f3e99bc90260801c5b62020000821615613fa2576e5d6af8dedb81196699c329225ee6040260801c5b62040000821615613fc1576d2216e584f5fa1ea926041bedfe980260801c5b62080000821615613fde576b048a170391f7dc42444e8fa20260801c5b60008460020b1315613ff9578060001981613ff557fe5b0490505b64010000000081061561400d576001614010565b60005b60ff16602082901c0192505050919050565b6000836001600160a01b0316856001600160a01b03161115614042579293925b846001600160a01b0316866001600160a01b03161161406d57614066858585614599565b90506140dd565b836001600160a01b0316866001600160a01b031610156140cf576000614094878686614599565b905060006140a38789866145fc565b9050806001600160801b0316826001600160801b0316106140c457806140c6565b815b925050506140dd565b6140da8585846145fc565b90505b95945050505050565b60006113768383614639565b600061137683836146ff565b6000610fcf84846001600160a01b038516614749565b815460009082106141565760405162461bcd60e51b81526004018080602001828103825260228152602001806156d46022913960400191505060405180910390fd5b82600001828154811061416557fe5b9060005260206000200154905092915050565b600061137683836147e0565b8154600090819083106141c85760405162461bcd60e51b81526004018080602001828103825260228152602001806158506022913960400191505060405180910390fd5b60008460000184815481106141d957fe5b906000526020600020906002020190508060000154816001015492509250509250929050565b6000828152600184016020526040812054828161429a5760405162461bcd60e51b81526004018080602001828103825283818151815260200191508051906020019080838360005b8381101561425f578181015183820152602001614247565b50505050905090810190601f16801561428c5780820380516001836020036101000a031916815260200191505b509250505060405180910390fd5b508460000160018203815481106142ad57fe5b9060005260206000209060020201600101549150509392505050565b604080516001600160a01b0385811660248301528481166044830152606480830185905283518084039091018152608490920183526020820180516001600160e01b03166323b872dd60e01b178152925182516000948594938a169392918291908083835b6020831061434d5780518252601f19909201916020918201910161432e565b6001836020036101000a0380198251168184511680821785525050505050509050019150506000604051808303816000865af19150503d80600081146143af576040519150601f19603f3d011682016040523d82523d6000602084013e6143b4565b606091505b50915091508180156143e25750805115806143e257508080602001905160208110156143df57600080fd5b50515b6125b5576040805162461bcd60e51b815260206004820152600360248201526229aa2360e91b604482015290519081900360640190fd5b600061442d846001600160a01b031661394d565b61443957506001610fcf565b6000614547630a85bd0160e11b61444e612f03565b88878760405160240180856001600160a01b03168152602001846001600160a01b0316815260200183815260200180602001828103825283818151815260200191508051906020019080838360005b838110156144b557818101518382015260200161449d565b50505050905090810190601f1680156144e25780820380516001836020036101000a031916815260200191505b5095505050505050604051602081830303815290604052906001600160e01b0319166020820180516001600160e01b0383818316178352505050506040518060600160405280603281526020016156f6603291396001600160a01b03881691906148b4565b9050600081806020019051602081101561456057600080fd5b50516001600160e01b031916630a85bd0160e11b1492505050949350505050565b60009081526001919091016020526040902054151590565b6000826001600160a01b0316846001600160a01b031611156145b9579192915b60006145dc856001600160a01b0316856001600160a01b0316600160601b613151565b90506140dd6145f784838888036001600160a01b0316613151565b6148c3565b6000826001600160a01b0316846001600160a01b0316111561461c579192915b610fcf6145f783600160601b8787036001600160a01b0316613151565b600081815260018301602052604081205480156146f5578354600019808301919081019060009087908390811061466c57fe5b906000526020600020015490508087600001848154811061468957fe5b6000918252602080832090910192909255828152600189810190925260409020908401905586548790806146b957fe5b60019003818190600052602060002001600090559055866001016000878152602001908152602001600020600090556001945050505050611379565b6000915050611379565b600061470b8383614581565b61474157508154600181810184556000848152602080822090930184905584548482528286019093526040902091909155611379565b506000611379565b6000828152600184016020526040812054806147ae57505060408051808201825283815260208082018481528654600181810189556000898152848120955160029093029095019182559151908201558654868452818801909252929091205561314a565b828560000160018303815481106147c157fe5b906000526020600020906002020160010181905550600091505061314a565b600081815260018301602052604081205480156146f5578354600019808301919081019060009087908390811061481357fe5b906000526020600020906002020190508087600001848154811061483357fe5b60009182526020808320845460029093020191825560019384015491840191909155835482528983019052604090209084019055865487908061487257fe5b60008281526020808220600260001990940193840201828155600190810183905592909355888152898201909252604082209190915594506113799350505050565b6060610fcf84846000856148d9565b806001600160801b03811681146106c557600080fd5b60608247101561491a5760405162461bcd60e51b81526004018080602001828103825260268152602001806157736026913960400191505060405180910390fd5b6149238561394d565b614974576040805162461bcd60e51b815260206004820152601d60248201527f416464726573733a2063616c6c20746f206e6f6e2d636f6e7472616374000000604482015290519081900360640190fd5b600080866001600160a01b031685876040518082805190602001908083835b602083106149b25780518252601f199092019160209182019101614993565b6001836020036101000a03801982511681845116808217855250505050505090500191505060006040518083038185875af1925050503d8060008114614a14576040519150601f19603f3d011682016040523d82523d6000602084013e614a19565b606091505b5091509150614a29828286614a34565b979650505050505050565b60608315614a4357508161314a565b825115614a535782518084602001fd5b60405162461bcd60e51b815260206004820181815284516024840152845185939192839260440191908501908083836000831561425f578181015183820152602001614247565b50805460018160011615610100020316600290046000825580601f10614ac05750614ade565b601f016020900490600052602060002090810190614ade9190614ae1565b50565b5b80821115614af65760008155600101614ae2565b5090565b80356106c58161567d565b805161ffff811681146106c557600080fd5b803562ffffff811681146106c557600080fd5b600060208284031215614b3b578081fd5b813561314a8161567d565b60008060408385031215614b58578081fd5b8235614b638161567d565b91506020830135614b738161567d565b809150509250929050565b60008060008060808587031215614b93578182fd5b8435614b9e8161567d565b93506020850135614bae8161567d565b9250614bbc60408601614b17565b91506060850135614bcc8161567d565b939692955090935050565b600080600060608486031215614beb578081fd5b8335614bf68161567d565b92506020840135614c068161567d565b929592945050506040919091013590565b60008060008060808587031215614c2c578182fd5b8435614c378161567d565b93506020850135614c478161567d565b92506040850135915060608501356001600160401b03811115614c68578182fd5b8501601f81018713614c78578182fd5b8035614c8b614c8682615630565b61560d565b818152886020838501011115614c9f578384fd5b81602084016020830137908101602001929092525092959194509250565b60008060408385031215614ccf578182fd5b8235614cda8161567d565b91506020830135614b7381615692565b60008060408385031215614cfc578182fd5b8235614d078161567d565b946020939093013593505050565b600080600060608486031215614d29578081fd5b8335614d348161567d565b9250602084013591506040840135614d4b8161567d565b809150509250925092565b60008060008060008060c08789031215614d6e578384fd5b8635614d798161567d565b955060208701359450604087013593506060870135614d97816156c4565b9598949750929560808101359460a0909101359350915050565b60008060208385031215614dc3578182fd5b82356001600160401b0380821115614dd9578384fd5b818501915085601f830112614dec578384fd5b813581811115614dfa578485fd5b8660208083028501011115614e0d578485fd5b60209290920196919550909350505050565b600060208284031215614e30578081fd5b81356001600160e01b03198116811461314a578182fd5b600060208284031215614e58578081fd5b813561314a816156a0565b600060208284031215614e74578081fd5b81516001600160401b03811115614e89578182fd5b8201601f81018413614e99578182fd5b8051614ea7614c8682615630565b818152856020838501011115614ebb578384fd5b6140dd826020830160208601615651565b600060808284031215614edd578081fd5b50919050565b600060a08284031215614edd578081fd5b600060c08284031215614edd578081fd5b60008183036080811215614f17578182fd5b604051604081016001600160401b038282108183111715614f3457fe5b816040526060841215614f45578485fd5b60a0830193508184108185111715614f5957fe5b508260405284359250614f6b8361567d565b918252602084013591614f7d8361567d565b826060830152614f8f60408601614b17565b60808301528152614fa260608501614afa565b6020820152949350505050565b60006101608284031215614edd578081fd5b600060208284031215614fd2578081fd5b813561314a816156af565b60008060408385031215614fef578182fd5b8251614ffa816156af565b6020840151909250614b73816156af565b600080600080600060a08688031215615022578283fd5b855161502d816156af565b809550506020860151935060408601519250606086015161504d816156af565b608087015190925061505e816156af565b809150509295509295909350565b600080600080600080600060e0888a031215615086578485fd5b87516150918161567d565b60208901519097506150a2816156a0565b95506150b060408901614b05565b94506150be60608901614b05565b93506150cc60808901614b05565b925060a08801516150dc816156c4565b60c08901519092506150ed81615692565b8091505092959891949750929550565b60006020828403121561510e578081fd5b61137682614b17565b600060208284031215615128578081fd5b5035919050565b60008060408385031215615141578182fd5b823591506020830135614b738161567d565b60008060408385031215615165578182fd5b505080516020909101519092909150565b6000806000806060858703121561518b578182fd5b843593506020850135925060408501356001600160401b03808211156151af578384fd5b818701915087601f8301126151c2578384fd5b8135818111156151d0578485fd5b8860208285010111156151e1578485fd5b95989497505060200194505050565b60008151808452615208816020860160208601615651565b601f01601f19169290920160200192915050565b60020b9052565b6001600160801b03169052565b6000828483379101908152919050565b6001600160a01b0391909116815260200190565b6001600160a01b0386168152600285810b602083015284900b60408201526001600160801b038316606082015260a060808201819052600090614a29908301846151f0565b6001600160a01b03959095168552600293840b60208601529190920b60408401526001600160801b03918216606084015216608082015260a00190565b6001600160a01b039390931683526001600160801b03918216602084015216604082015260600190565b6000602080830181845280855180835260408601915060408482028701019250838701855b8281101561535357603f198886030184526153418583516151f0565b94509285019290850190600101615325565b5092979650505050505050565b901515815260200190565b90815260200190565b600293840b81529190920b60208201526001600160801b03909116604082015260600190565b60006020825261137660208301846151f0565b6020808252600c908201526b139bdd08185c1c1c9bdd995960a21b604082015260600190565b6020808252602c908201527f4552433732313a20617070726f76656420717565727920666f72206e6f6e657860408201526b34b9ba32b73a103a37b5b2b760a11b606082015260800190565b602080825260149082015273507269636520736c69707061676520636865636b60601b604082015260600190565b60208082526010908201526f125b9d985b1a59081d1bdad95b88125160821b604082015260600190565b6020808252600b908201526a139bdd0818db19585c995960aa1b604082015260600190565b815180516001600160a01b03908116835260208083015182168185015260409283015162ffffff1692840192909252920151909116606082015260800190565b6001600160801b039390931683526020830191909152604082015260600190565b9384526001600160801b039290921660208401526040830152606082015260800190565b918252602082015260400190565b6001600160601b038d1681526001600160a01b038c811660208301528b811660408301528a16606082015262ffffff89166080820152600288900b60a0820152610180810161558160c083018961521c565b61558e60e0830188615223565b85610100830152846101208301526155aa610140830185615223565b6155b8610160830184615223565b9d9c50505050505050505050505050565b6000808335601e198436030181126155df578283fd5b8301803591506001600160401b038211156155f8578283fd5b60200191503681900382131561375157600080fd5b6040518181016001600160401b038111828210171561562857fe5b604052919050565b60006001600160401b0382111561564357fe5b50601f01601f191660200190565b60005b8381101561566c578181015183820152602001615654565b838111156127545750506000910152565b6001600160a01b0381168114614ade57600080fd5b8015158114614ade57600080fd5b8060020b8114614ade57600080fd5b6001600160801b0381168114614ade57600080fd5b60ff81168114614ade57600080fdfe456e756d657261626c655365743a20696e646578206f7574206f6620626f756e64734552433732313a207472616e7366657220746f206e6f6e20455243373231526563656976657220696d706c656d656e7465724552433732315065726d69743a20617070726f76616c20746f2063757272656e74206f776e65724552433732313a207472616e7366657220746f20746865207a65726f2061646472657373416464726573733a20696e73756666696369656e742062616c616e636520666f722063616c6c4552433732313a206f70657261746f7220717565727920666f72206e6f6e6578697374656e7420746f6b656e4552433732313a20617070726f76652063616c6c6572206973206e6f74206f776e6572206e6f7220617070726f76656420666f7220616c6c4552433732313a2062616c616e636520717565727920666f7220746865207a65726f20616464726573734552433732313a206f776e657220717565727920666f72206e6f6e6578697374656e7420746f6b656e456e756d657261626c654d61703a20696e646578206f7574206f6620626f756e64734552433732313a207472616e73666572206f6620746f6b656e2074686174206973206e6f74206f776eddf252ad1be2c89b69c2b068fc378daa952ba7f163c4a11628f55a4df523b3ef4552433732313a20617070726f76616c20746f2063757272656e74206f776e65724552433732313a207472616e736665722063616c6c6572206973206e6f74206f776e6572206e6f7220617070726f766564a164736f6c6343000706000a",
  "linkReferences": {},
  "deployedLinkReferences": {}
}