{
  "_format": "hh-sol-artifact-1",
  "contractName": "zer0dexV3Quoter",
  "sourceName": "contracts/zer0dexV3Quoter.sol",
  "abi": [
    {
      "inputs": [
        {
          "internalType": "address",
          "name": "_factory",
          "type": "address"
        },
        {
          "internalType": "address",
          "name": "_WETH9",
          "type": "address"
        }
      ],
      "stateMutability": "nonpayable",
      "type": "constructor"
    },
    {
      "inputs": [],
      "name": "WETH9",
      "outputs": [
        {
          "internalType": "address",
          "name": "",
          "type": "address"
        }
      ],
      "stateMutability": "view",
      "type": "function"
    },
    {
      "inputs": [],
      "name": "factory",
      "outputs": [
        {
          "internalType": "address",
          "name": "",
          "type": "address"
        }
      ],
      "stateMutability": "view",
      "type": "function"
    },
    {
      "inputs": [
        {
          "internalType": "bytes",
          "name": "path",
          "type": "bytes"
        },
        {
          "internalType": "uint256",
          "name": "amountIn",
          "type": "uint256"
        }
      ],
      "name": "quoteExactInput",
      "outputs": [
        {
          "internalType": "uint256",
          "name": "amountOut",
          "type": "uint256"
        }
      ],
      "stateMutability": "nonpayable",
      "type": "function"
    },
    {
      "inputs": [
        {
          "internalType": "address",
          "name": "tokenIn",
          "type": "address"
        },
        {
          "internalType": "address",
          "name": "tokenOut",
          "type": "address"
        },
        {
          "internalType": "uint24",
          "name": "fee",
          "type": "uint24"
        },
        {
          "internalType": "uint256",
          "name": "amountIn",
          "type": "uint256"
        },
        {
          "internalType": "uint160",
          "name": "sqrtPriceLimitX96",
          "type": "uint160"
        }
      ],
      "name": "quoteExactInputSingle",
      "outputs": [
        {
          "internalType": "uint256",
          "name": "amountOut",
          "type": "uint256"
        }
      ],
      "stateMutability": "nonpayable",
      "type": "function"
    },
    {
      "inputs": [
        {
          "internalType": "bytes",
          "name": "path",
          "type": "bytes"
        },
        {
          "internalType": "uint256",
          "name": "amountOut",
          "type": "uint256"
        }
      ],
      "name": "quoteExactOutput",
      "outputs": [
        {
          "internalType": "uint256",
          "name": "amountIn",
          "type": "uint256"
        }
      ],
      "stateMutability": "nonpayable",
      "type": "function"
    },
    {
      "inputs": [
        {
          "internalType": "address",
          "name": "tokenIn",
          "type": "address"
        },
        {
          "internalType": "address",
          "name": "tokenOut",
          "type": "address"
        },
        {
          "internalType": "uint24",
          "name": "fee",
          "type": "uint24"
        },
        {
          "internalType": "uint256",
          "name": "amountOut",
          "type": "uint256"
        },
        {
          "internalType": "uint160",
          "name": "sqrtPriceLimitX96",
          "type": "uint160"
        }
      ],
      "name": "quoteExactOutputSingle",
      "outputs": [
        {
          "internalType": "uint256",
          "name": "amountIn",
          "type": "uint256"
        }
      ],
      "stateMutability": "nonpayable",
      "type": "function"
    },
    {
      "inputs": [
        {
          "internalType": "int256",
          "name": "amount0Delta",
          "type": "int256"
        },
        {
          "internalType": "int256",
          "name": "amount1Delta",
          "type": "int256"
        },
        {
          "internalType": "bytes",
          "name": "path",
          "type": "bytes"
        }
      ],
      "name": "zer0dexV3SwapCallback",
      "outputs": [],
      "stateMutability": "view",
      "type": "function"
    }
  ],
  "bytecode": "0x60c060405234801561001057600080fd5b50604051610f43380380610f4383398101604081905261002f91610069565b6001600160601b0319606092831b8116608052911b1660a05261009b565b80516001600160a01b038116811461006457600080fd5b919050565b6000806040838503121561007b578182fd5b6100848361004d565b91506100926020840161004d565b90509250929050565b60805160601c60a05160601c610e756100ce600039806102e052508061033352806103db52806105dc5250610e756000f3fe608060405234801561001057600080fd5b506004361061006d5760003560e01c80632f80bb1d1461007257806330d07f211461009b5780634aa4a4fc146100ae578063b9304398146100c3578063c45a0155146100d8578063cdca1753146100e0578063f7729d43146100f3575b600080fd5b610085610080366004610b9b565b610106565b6040516100929190610dd1565b60405180910390f35b6100856100a9366004610b2d565b61016b565b6100b66102de565b6040516100929190610d33565b6100d66100d1366004610c01565b610302565b005b6100b66103d9565b6100856100ee366004610b9b565b6103fd565b610085610101366004610b2d565b61044b565b60005b600061011484610585565b905060008060006101248761058d565b92509250925061013882848389600061016b565b9550831561015057610149876105be565b965061015c565b85945050505050610165565b50505050610109565b92915050565b60006001600160a01b03808616878216109083166101895760008490555b6101948787876105d5565b6001600160a01b031663128acb0830836101ad88610613565b6000036001600160a01b038816156101c557876101eb565b856101e45773fffd8963efd1fc6a506488495d951d5263988d256101eb565b6401000276a45b8b8b8e60405160200161020093929190610cfd565b6040516020818303038152906040526040518663ffffffff1660e01b815260040161022f959493929190610d47565b6040805180830381600087803b15801561024857600080fd5b505af1925050508015610278575060408051601f3d908101601f1916820190925261027591810190610bde565b60015b6102d1573d8080156102a6576040519150601f19603f3d011682016040523d82523d6000602084013e6102ab565b606091505b506001600160a01b0384166102bf57600080555b6102c881610629565b925050506102d5565b5050505b95945050505050565b7f000000000000000000000000000000000000000000000000000000000000000081565b60008313806103115750600082135b61031a57600080fd5b60008060006103288461058d565b92509250925061035a7f00000000000000000000000000000000000000000000000000000000000000008484846106a6565b50600080600080891361038657856001600160a01b0316856001600160a01b031610888a6000036103a1565b846001600160a01b0316866001600160a01b03161089896000035b92509250925082156103b857604051818152602081fd5b600054156103ce5760005481146103ce57600080fd5b604051828152602081fd5b7f000000000000000000000000000000000000000000000000000000000000000081565b60005b600061040b84610585565b9050600080600061041b8761058d565b92509250925061042f83838389600061044b565b9550831561015057610440876105be565b965050505050610400565b60006001600160a01b03808616908716106104678787876105d5565b6001600160a01b031663128acb08308361048088610613565b6001600160a01b0388161561049557876104bb565b856104b45773fffd8963efd1fc6a506488495d951d5263988d256104bb565b6401000276a45b8c8b8d6040516020016104d093929190610cfd565b6040516020818303038152906040526040518663ffffffff1660e01b81526004016104ff959493929190610d47565b6040805180830381600087803b15801561051857600080fd5b505af1925050508015610548575060408051601f3d908101601f1916820190925261054591810190610bde565b60015b6102d1573d808015610576576040519150601f19603f3d011682016040523d82523d6000602084013e61057b565b606091505b506102c881610629565b516042111590565b6000808061059b84826106bc565b92506105a884601461076c565b90506105b58460176106bc565b91509193909250565b805160609061016590839060179060161901610813565b600061060b7f0000000000000000000000000000000000000000000000000000000000000000610606868686610964565b6109ba565b949350505050565b6000600160ff1b821061062557600080fd5b5090565b600081516020146106925760448251101561065f5760405162461bcd60e51b815260040161065690610da7565b60405180910390fd5b600482019150818060200190518101906106799190610c4f565b60405162461bcd60e51b81526004016106569190610d8d565b818060200190518101906101659190610cb9565b60006102d5856106b7868686610964565b610a99565b60008182601401101561070b576040805162461bcd60e51b8152602060048201526012602482015271746f416464726573735f6f766572666c6f7760701b604482015290519081900360640190fd5b816014018351101561075c576040805162461bcd60e51b8152602060048201526015602482015274746f416464726573735f6f75744f66426f756e647360581b604482015290519081900360640190fd5b500160200151600160601b900490565b6000818260030110156107ba576040805162461bcd60e51b8152602060048201526011602482015270746f55696e7432345f6f766572666c6f7760781b604482015290519081900360640190fd5b816003018351101561080a576040805162461bcd60e51b8152602060048201526014602482015273746f55696e7432345f6f75744f66426f756e647360601b604482015290519081900360640190fd5b50016003015190565b60608182601f01101561085e576040805162461bcd60e51b815260206004820152600e60248201526d736c6963655f6f766572666c6f7760901b604482015290519081900360640190fd5b8282840110156108a6576040805162461bcd60e51b815260206004820152600e60248201526d736c6963655f6f766572666c6f7760901b604482015290519081900360640190fd5b818301845110156108f2576040805162461bcd60e51b8152602060048201526011602482015270736c6963655f6f75744f66426f756e647360781b604482015290519081900360640190fd5b606082158015610911576040519150600082526020820160405261095b565b6040519150601f8416801560200281840101858101878315602002848b0101015b8183101561094a578051835260209283019201610932565b5050858452601f01601f1916604052505b50949350505050565b61096c610abc565b826001600160a01b0316846001600160a01b0316111561098a579192915b50604080516060810182526001600160a01b03948516815292909316602083015262ffffff169181019190915290565b600081602001516001600160a01b031682600001516001600160a01b0316106109e257600080fd5b50805160208083015160409384015184516001600160a01b0394851681850152939091168385015262ffffff166060808401919091528351808403820181526080840185528051908301206001600160f81b031960a085015294901b6001600160601b03191660a183015260b58201939093527f9924cf4430a7fdab68f1bbc1f001e17a98f18d18b73a230792933c733c00cdb660d5808301919091528251808303909101815260f5909101909152805191012090565b6000610aa583836109ba565b9050336001600160a01b0382161461016557600080fd5b604080516060810182526000808252602082018190529181019190915290565b600082601f830112610aec578081fd5b8135610aff610afa82610dfe565b610dda565b818152846020838601011115610b13578283fd5b816020850160208301379081016020019190915292915050565b600080600080600060a08688031215610b44578081fd5b8535610b4f81610e50565b94506020860135610b5f81610e50565b9350604086013562ffffff81168114610b76578182fd5b9250606086013591506080860135610b8d81610e50565b809150509295509295909350565b60008060408385031215610bad578182fd5b823567ffffffffffffffff811115610bc3578283fd5b610bcf85828601610adc565b95602094909401359450505050565b60008060408385031215610bf0578182fd5b505080516020909101519092909150565b600080600060608486031215610c15578283fd5b8335925060208401359150604084013567ffffffffffffffff811115610c39578182fd5b610c4586828701610adc565b9150509250925092565b600060208284031215610c60578081fd5b815167ffffffffffffffff811115610c76578182fd5b8201601f81018413610c86578182fd5b8051610c94610afa82610dfe565b818152856020838501011115610ca8578384fd5b6102d5826020830160208601610e20565b600060208284031215610cca578081fd5b5051919050565b60008151808452610ce9816020860160208601610e20565b601f01601f19169290920160200192915050565b606093841b6001600160601b0319908116825260e89390931b6001600160e81b0319166014820152921b166017820152602b0190565b6001600160a01b0391909116815260200190565b6001600160a01b0386811682528515156020830152604082018590528316606082015260a060808201819052600090610d8290830184610cd1565b979650505050505050565b600060208252610da06020830184610cd1565b9392505050565b60208082526010908201526f2ab732bc3832b1ba32b21032b93937b960811b604082015260600190565b90815260200190565b60405181810167ffffffffffffffff81118282101715610df657fe5b604052919050565b600067ffffffffffffffff821115610e1257fe5b50601f01601f191660200190565b60005b83811015610e3b578181015183820152602001610e23565b83811115610e4a576000848401525b50505050565b6001600160a01b0381168114610e6557600080fd5b5056fea164736f6c6343000706000a",
  "linkReferences": {},
  "deployedLinkReferences": {}
}