{
  "_format": "hh-sol-artifact-1",
  "contractName": "zer0dexV3SwapRouter",
  "sourceName": "contracts/zer0dexV3SwapRouter.sol",
  "abi": [
    {
      "inputs": [
        {
          "internalType": "address",
          "name": "_factory",
          "type": "address"
        },
        {
          "internalType": "address",
          "name": "_WETH9",
          "type": "address"
        }
      ],
      "stateMutability": "nonpayable",
      "type": "constructor"
    },
    {
      "inputs": [],
      "name": "WETH9",
      "outputs": [
        {
          "internalType": "address",
          "name": "",
          "type": "address"
        }
      ],
      "stateMutability": "view",
      "type": "function"
    },
    {
      "inputs": [
        {
          "components": [
            {
              "internalType": "bytes",
              "name": "path",
              "type": "bytes"
            },
            {
              "internalType": "address",
              "name": "recipient",
              "type": "address"
            },
            {
              "internalType": "uint256",
              "name": "deadline",
              "type": "uint256"
            },
            {
              "internalType": "uint256",
              "name": "amountIn",
              "type": "uint256"
            },
            {
              "internalType": "uint256",
              "name": "amountOutMinimum",
              "type": "uint256"
            }
          ],
          "internalType": "struct ISwapRouter.ExactInputParams",
          "name": "params",
          "type": "tuple"
        }
      ],
      "name": "exactInput",
      "outputs": [
        {
          "internalType": "uint256",
          "name": "amountOut",
          "type": "uint256"
        }
      ],
      "stateMutability": "payable",
      "type": "function"
    },
    {
      "inputs": [
        {
          "components": [
            {
              "internalType": "address",
              "name": "tokenIn",
              "type": "address"
            },
            {
              "internalType": "address",
              "name": "tokenOut",
              "type": "address"
            },
            {
              "internalType": "uint24",
              "name": "fee",
              "type": "uint24"
            },
            {
              "internalType": "address",
              "name": "recipient",
              "type": "address"
            },
            {
              "internalType": "uint256",
              "name": "deadline",
              "type": "uint256"
            },
            {
              "internalType": "uint256",
              "name": "amountIn",
              "type": "uint256"
            },
            {
              "internalType": "uint256",
              "name": "amountOutMinimum",
              "type": "uint256"
            },
            {
              "internalType": "uint160",
              "name": "sqrtPriceLimitX96",
              "type": "uint160"
            }
          ],
          "internalType": "struct ISwapRouter.ExactInputSingleParams",
          "name": "params",
          "type": "tuple"
        }
      ],
      "name": "exactInputSingle",
      "outputs": [
        {
          "internalType": "uint256",
          "name": "amountOut",
          "type": "uint256"
        }
      ],
      "stateMutability": "payable",
      "type": "function"
    },
    {
      "inputs": [
        {
          "components": [
            {
              "internalType": "bytes",
              "name": "path",
              "type": "bytes"
            },
            {
              "internalType": "address",
              "name": "recipient",
              "type": "address"
            },
            {
              "internalType": "uint256",
              "name": "deadline",
              "type": "uint256"
            },
            {
              "internalType": "uint256",
              "name": "amountOut",
              "type": "uint256"
            },
            {
              "internalType": "uint256",
              "name": "amountInMaximum",
              "type": "uint256"
            }
          ],
          "internalType": "struct ISwapRouter.ExactOutputParams",
          "name": "params",
          "type": "tuple"
        }
      ],
      "name": "exactOutput",
      "outputs": [
        {
          "internalType": "uint256",
          "name": "amountIn",
          "type": "uint256"
        }
      ],
      "stateMutability": "payable",
      "type": "function"
    },
    {
      "inputs": [
        {
          "components": [
            {
              "internalType": "address",
              "name": "tokenIn",
              "type": "address"
            },
            {
              "internalType": "address",
              "name": "tokenOut",
              "type": "address"
            },
            {
              "internalType": "uint24",
              "name": "fee",
              "type": "uint24"
            },
            {
              "internalType": "address",
              "name": "recipient",
              "type": "address"
            },
            {
              "internalType": "uint256",
              "name": "deadline",
              "type": "uint256"
            },
            {
              "internalType": "uint256",
              "name": "amountOut",
              "type": "uint256"
            },
            {
              "internalType": "uint256",
              "name": "amountInMaximum",
              "type": "uint256"
            },
            {
              "internalType": "uint160",
              "name": "sqrtPriceLimitX96",
              "type": "uint160"
            }
          ],
          "internalType": "struct ISwapRouter.ExactOutputSingleParams",
          "name": "params",
          "type": "tuple"
        }
      ],
      "name": "exactOutputSingle",
      "outputs": [
        {
          "internalType": "uint256",
          "name": "amountIn",
          "type": "uint256"
        }
      ],
      "stateMutability": "payable",
      "type": "function"
    },
    {
      "inputs": [],
      "name": "factory",
      "outputs": [
        {
          "internalType": "address",
          "name": "",
          "type": "address"
        }
      ],
      "stateMutability": "view",
      "type": "function"
    },
    {
      "inputs": [
        {
          "internalType": "bytes[]",
          "name": "data",
          "type": "bytes[]"
        }
      ],
      "name": "multicall",
      "outputs": [
        {
          "internalType": "bytes[]",
          "name": "results",
          "type": "bytes[]"
        }
      ],
      "stateMutability": "payable",
      "type": "function"
    },
    {
      "inputs": [],
      "name": "refundETH",
      "outputs": [],
      "stateMutability": "payable",
      "type": "function"
    },
    {
      "inputs": [
        {
          "internalType": "address",
          "name": "token",
          "type": "address"
        },
        {
          "internalType": "uint256",
          "name": "value",
          "type": "uint256"
        },
        {
          "internalType": "uint256",
          "name": "deadline",
          "type": "uint256"
        },
        {
          "internalType": "uint8",
          "name": "v",
          "type": "uint8"
        },
        {
          "internalType": "bytes32",
          "name": "r",
          "type": "bytes32"
        },
        {
          "internalType": "bytes32",
          "name": "s",
          "type": "bytes32"
        }
      ],
      "name": "selfPermit",
      "outputs": [],
      "stateMutability": "payable",
      "type": "function"
    },
    {
      "inputs": [
        {
          "internalType": "address",
          "name": "token",
          "type": "address"
        },
        {
          "internalType": "uint256",
          "name": "nonce",
          "type": "uint256"
        },
        {
          "internalType": "uint256",
          "name": "expiry",
          "type": "uint256"
        },
        {
          "internalType": "uint8",
          "name": "v",
          "type": "uint8"
        },
        {
          "internalType": "bytes32",
          "name": "r",
          "type": "bytes32"
        },
        {
          "internalType": "bytes32",
          "name": "s",
          "type": "bytes32"
        }
      ],
      "name": "selfPermitAllowed",
      "outputs": [],
      "stateMutability": "payable",
      "type": "function"
    },
    {
      "inputs": [
        {
          "internalType": "address",
          "name": "token",
          "type": "address"
        },
        {
          "internalType": "uint256",
          "name": "nonce",
          "type": "uint256"
        },
        {
          "internalType": "uint256",
          "name": "expiry",
          "type": "uint256"
        },
        {
          "internalType": "uint8",
          "name": "v",
          "type": "uint8"
        },
        {
          "internalType": "bytes32",
          "name": "r",
          "type": "bytes32"
        },
        {
          "internalType": "bytes32",
          "name": "s",
          "type": "bytes32"
        }
      ],
      "name": "selfPermitAllowedIfNecessary",
      "outputs": [],
      "stateMutability": "payable",
      "type": "function"
    },
    {
      "inputs": [
        {
          "internalType": "address",
          "name": "token",
          "type": "address"
        },
        {
          "internalType": "uint256",
          "name": "value",
          "type": "uint256"
        },
        {
          "internalType": "uint256",
          "name": "deadline",
          "type": "uint256"
        },
        {
          "internalType": "uint8",
          "name": "v",
          "type": "uint8"
        },
        {
          "internalType": "bytes32",
          "name": "r",
          "type": "bytes32"
        },
        {
          "internalType": "bytes32",
          "name": "s",
          "type": "bytes32"
        }
      ],
      "name": "selfPermitIfNecessary",
      "outputs": [],
      "stateMutability": "payable",
      "type": "function"
    },
    {
      "inputs": [
        {
          "internalType": "address",
          "name": "token",
          "type": "address"
        },
        {
          "internalType": "uint256",
          "name": "amountMinimum",
          "type": "uint256"
        },
        {
          "internalType": "address",
          "name": "recipient",
          "type": "address"
        }
      ],
      "name": "sweepToken",
      "outputs": [],
      "stateMutability": "payable",
      "type": "function"
    },
    {
      "inputs": [
        {
          "internalType": "address",
          "name": "token",
          "type": "address"
        },
        {
          "internalType": "uint256",
          "name": "amountMinimum",
          "type": "uint256"
        },
        {
          "internalType": "address",
          "name": "recipient",
          "type": "address"
        },
        {
          "internalType": "uint256",
          "name": "feeBips",
          "type": "uint256"
        },
        {
          "internalType": "address",
          "name": "feeRecipient",
          "type": "address"
        }
      ],
      "name": "sweepTokenWithFee",
      "outputs": [],
      "stateMutability": "payable",
      "type": "function"
    },
    {
      "inputs": [
        {
          "internalType": "uint256",
          "name": "amountMinimum",
          "type": "uint256"
        },
        {
          "internalType": "address",
          "name": "recipient",
          "type": "address"
        }
      ],
      "name": "unwrapWETH9",
      "outputs": [],
      "stateMutability": "payable",
      "type": "function"
    },
    {
      "inputs": [
        {
          "internalType": "uint256",
          "name": "amountMinimum",
          "type": "uint256"
        },
        {
          "internalType": "address",
          "name": "recipient",
          "type": "address"
        },
        {
          "internalType": "uint256",
          "name": "feeBips",
          "type": "uint256"
        },
        {
          "internalType": "address",
          "name": "feeRecipient",
          "type": "address"
        }
      ],
      "name": "unwrapWETH9WithFee",
      "outputs": [],
      "stateMutability": "payable",
      "type": "function"
    },
    {
      "inputs": [
        {
          "internalType": "int256",
          "name": "amount0Delta",
          "type": "int256"
        },
        {
          "internalType": "int256",
          "name": "amount1Delta",
          "type": "int256"
        },
        {
          "internalType": "bytes",
          "name": "_data",
          "type": "bytes"
        }
      ],
      "name": "zer0dexV3SwapCallback",
      "outputs": [],
      "stateMutability": "nonpayable",
      "type": "function"
    },
    {
      "stateMutability": "payable",
      "type": "receive"
    }
  ],
  "bytecode": "0x60c06040526000196000553480156200001757600080fd5b5060405162002743380380620027438339810160408190526200003a9162000076565b6001600160601b0319606092831b8116608052911b1660a052620000ad565b80516001600160a01b03811681146200007157600080fd5b919050565b6000806040838503121562000089578182fd5b620000948362000059565b9150620000a46020840162000059565b90509250929050565b60805160601c60a05160601c61263b620001086000398060f252806104a75280610592528061061f528061065f528061074a528061140c528061145252806114c6525080610a225280610c955280611895525061263b6000f3fe6080604052600436106100e25760003560e01c8063b930439811610085578063b930439814610216578063c04b8d5914610236578063c2e3140a14610249578063c45a01551461025c578063db3e219814610271578063df2ab5bb14610284578063e0e189a014610297578063f28c0498146102aa578063f3995c67146102bd57610152565b806312210e8a14610157578063414bf3891461015f5780634659a4941461018857806349404b7c1461019b5780634aa4a4fc146101ae5780639b2c0a37146101d0578063a4a78f0c146101e3578063ac9650d8146101f657610152565b3661015257336001600160a01b037f00000000000000000000000000000000000000000000000000000000000000001614610150576040805162461bcd60e51b81526020600482015260096024820152684e6f7420574554483960b81b604482015290519081900360640190fd5b005b600080fd5b6101506102d0565b61017261016d366004612200565b6102e2565b60405161017f9190612552565b60405180910390f35b610150610196366004611f82565b610409565b6101506101a9366004612305565b6104a3565b3480156101ba57600080fd5b506101c361061d565b60405161017f91906123ef565b6101506101de366004612334565b610641565b6101506101f1366004611f82565b61080d565b610209610204366004611fe2565b61089e565b60405161017f9190612449565b34801561022257600080fd5b50610150610231366004612073565b6109dd565b610172610244366004612156565b610af0565b610150610257366004611f82565b610c04565b34801561026857600080fd5b506101c3610c93565b61017261027f366004612200565b610cb7565b610150610292366004611ee3565b610dde565b6101506102a5366004611f24565b610ebc565b6101726102b836600461221c565b610fe3565b6101506102cb366004611f82565b6110d9565b47156102e0576102e0334761114b565b565b60008160800135806102f261123a565b111561033b576040805162461bcd60e51b8152602060048201526013602482015272151c985b9cd858dd1a5bdb881d1bdbc81bdb19606a1b604482015290519081900360640190fd5b6103d460a08401356103536080860160608701611ec0565b610364610100870160e08801611ec0565b604080518082019091528061037c60208a018a611ec0565b61038c60608b0160408c016122e2565b61039c60408c0160208d01611ec0565b6040516020016103ae939291906123a9565b6040516020818303038152906040528152602001336001600160a01b031681525061123e565b91508260c001358210156104035760405162461bcd60e51b81526004016103fa906124e8565b60405180910390fd5b50919050565b604080516323f2ebc360e21b815233600482015230602482015260448101879052606481018690526001608482015260ff851660a482015260c4810184905260e4810183905290516001600160a01b03881691638fcbaf0c9161010480830192600092919082900301818387803b15801561048357600080fd5b505af1158015610497573d6000803e3d6000fd5b50505050505050505050565b60007f00000000000000000000000000000000000000000000000000000000000000006001600160a01b03166370a08231306040518263ffffffff1660e01b815260040180826001600160a01b0316815260200191505060206040518083038186803b15801561051257600080fd5b505afa158015610526573d6000803e3d6000fd5b505050506040513d602081101561053c57600080fd5b505190508281101561058a576040805162461bcd60e51b8152602060048201526012602482015271496e73756666696369656e7420574554483960701b604482015290519081900360640190fd5b8015610618577f00000000000000000000000000000000000000000000000000000000000000006001600160a01b0316632e1a7d4d826040518263ffffffff1660e01b815260040180828152602001915050600060405180830381600087803b1580156105f657600080fd5b505af115801561060a573d6000803e3d6000fd5b50505050610618828261114b565b505050565b7f000000000000000000000000000000000000000000000000000000000000000081565b600082118015610652575060648211155b61065b57600080fd5b60007f00000000000000000000000000000000000000000000000000000000000000006001600160a01b03166370a08231306040518263ffffffff1660e01b815260040180826001600160a01b0316815260200191505060206040518083038186803b1580156106ca57600080fd5b505afa1580156106de573d6000803e3d6000fd5b505050506040513d60208110156106f457600080fd5b5051905084811015610742576040805162461bcd60e51b8152602060048201526012602482015271496e73756666696369656e7420574554483960701b604482015290519081900360640190fd5b8015610806577f00000000000000000000000000000000000000000000000000000000000000006001600160a01b0316632e1a7d4d826040518263ffffffff1660e01b815260040180828152602001915050600060405180830381600087803b1580156107ae57600080fd5b505af11580156107c2573d6000803e3d6000fd5b5050505060006127106107de858461139090919063ffffffff16565b816107e557fe5b04905080156107f8576107f8838261114b565b6108048582840361114b565b505b5050505050565b60408051636eb1769f60e11b81523360048201523060248201529051600019916001600160a01b0389169163dd62ed3e91604480820192602092909190829003018186803b15801561085e57600080fd5b505afa158015610872573d6000803e3d6000fd5b505050506040513d602081101561088857600080fd5b5051101561080457610804868686868686610409565b6060816001600160401b03811180156108b657600080fd5b506040519080825280602002602001820160405280156108ea57816020015b60608152602001906001900390816108d55790505b50905060005b828110156109d6576000803086868581811061090857fe5b905060200281019061091a919061255b565b6040516109289291906123df565b600060405180830381855af49150503d8060008114610963576040519150601f19603f3d011682016040523d82523d6000602084013e610968565b606091505b5091509150816109b45760448151101561098157600080fd5b6004810190508080602001905181019061099b91906120ed565b60405162461bcd60e51b81526004016103fa91906124a9565b808484815181106109c157fe5b602090810291909101015250506001016108f0565b5092915050565b60008413806109ec5750600083135b6109f557600080fd5b6000610a0382840184612253565b90506000806000610a1784600001516113ba565b925092509250610a497f00000000000000000000000000000000000000000000000000000000000000008484846113eb565b5060008060008a13610a7057846001600160a01b0316846001600160a01b03161089610a87565b836001600160a01b0316856001600160a01b0316108a5b915091508115610aa657610aa1858760200151338461140a565b610497565b8551610ab19061159a565b15610ad6578551610ac1906115a6565b8652610ad081336000896115bd565b50610497565b80600081905550839450610497858760200151338461140a565b6000816040015180610b0061123a565b1115610b49576040805162461bcd60e51b8152602060048201526013602482015272151c985b9cd858dd1a5bdb881d1bdbc81bdb19606a1b604482015290519081900360640190fd5b335b6000610b5a856000015161159a565b9050610ba6856060015182610b73578660200151610b75565b305b60006040518060400160405280610b8f8b60000151611738565b8152602001876001600160a01b031681525061123e565b60608601528015610bc6578451309250610bbf906115a6565b8552610bd3565b8460600151935050610bd9565b50610b4b565b8360800151831015610bfd5760405162461bcd60e51b81526004016103fa906124e8565b5050919050565b60408051636eb1769f60e11b8152336004820152306024820152905186916001600160a01b0389169163dd62ed3e91604480820192602092909190829003018186803b158015610c5357600080fd5b505afa158015610c67573d6000803e3d6000fd5b505050506040513d6020811015610c7d57600080fd5b50511015610804576108048686868686866110d9565b7f000000000000000000000000000000000000000000000000000000000000000081565b6000816080013580610cc761123a565b1115610d10576040805162461bcd60e51b8152602060048201526013602482015272151c985b9cd858dd1a5bdb881d1bdbc81bdb19606a1b604482015290519081900360640190fd5b610dac60a0840135610d286080860160608701611ec0565b610d39610100870160e08801611ec0565b6040518060400160405280886020016020810190610d579190611ec0565b610d6760608b0160408c016122e2565b610d7460208c018c611ec0565b604051602001610d86939291906123a9565b6040516020818303038152906040528152602001336001600160a01b03168152506115bd565b91508260c00135821115610dd25760405162461bcd60e51b81526004016103fa906124bc565b50600019600055919050565b6000836001600160a01b03166370a08231306040518263ffffffff1660e01b815260040180826001600160a01b0316815260200191505060206040518083038186803b158015610e2d57600080fd5b505afa158015610e41573d6000803e3d6000fd5b505050506040513d6020811015610e5757600080fd5b5051905082811015610ea5576040805162461bcd60e51b815260206004820152601260248201527124b739bab33334b1b4b2b73a103a37b5b2b760711b604482015290519081900360640190fd5b8015610eb657610eb6848383611747565b50505050565b600082118015610ecd575060648211155b610ed657600080fd5b6000856001600160a01b03166370a08231306040518263ffffffff1660e01b815260040180826001600160a01b0316815260200191505060206040518083038186803b158015610f2557600080fd5b505afa158015610f39573d6000803e3d6000fd5b505050506040513d6020811015610f4f57600080fd5b5051905084811015610f9d576040805162461bcd60e51b815260206004820152601260248201527124b739bab33334b1b4b2b73a103a37b5b2b760711b604482015290519081900360640190fd5b8015610804576000612710610fb28386611390565b81610fb957fe5b0490508015610fcd57610fcd878483611747565b610fda8786838503611747565b50505050505050565b6000816040013580610ff361123a565b111561103c576040805162461bcd60e51b8152602060048201526013602482015272151c985b9cd858dd1a5bdb881d1bdbc81bdb19606a1b604482015290519081900360640190fd5b6110af60608401356110546040860160208701611ec0565b604080518082019091526000908061106c898061255b565b8080601f016020809104026020016040519081016040528093929190818152602001838380828437600092019190915250505090825250336020909101526115bd565b5060005491508260800135821115610dd25760405162461bcd60e51b81526004016103fa906124bc565b6040805163d505accf60e01b8152336004820152306024820152604481018790526064810186905260ff8516608482015260a4810184905260c4810183905290516001600160a01b0388169163d505accf9160e480830192600092919082900301818387803b15801561048357600080fd5b604080516000808252602082019092526001600160a01b0384169083906040518082805190602001908083835b602083106111975780518252601f199092019160209182019101611178565b6001836020036101000a03801982511681845116808217855250505050505090500191505060006040518083038185875af1925050503d80600081146111f9576040519150601f19603f3d011682016040523d82523d6000602084013e6111fe565b606091505b5050905080610618576040805162461bcd60e51b815260206004820152600360248201526253544560e81b604482015290519081900360640190fd5b4290565b60006001600160a01b038416611252573093505b600080600061126485600001516113ba565b919450925090506001600160a01b038083169084161060008061128886868661188e565b6001600160a01b031663128acb088b856112a18f6118cc565b6001600160a01b038e16156112b6578d6112dc565b876112d55773fffd8963efd1fc6a506488495d951d5263988d256112dc565b6401000276a45b8d6040516020016112ed9190612515565b6040516020818303038152906040526040518663ffffffff1660e01b815260040161131c959493929190612403565b6040805180830381600087803b15801561133557600080fd5b505af1158015611349573d6000803e3d6000fd5b505050506040513d601f19601f8201168201806040525081019061136d9190612050565b915091508261137c578161137e565b805b6000039b9a5050505050505050505050565b60008215806113ab575050818102818382816113a857fe5b04145b6113b457600080fd5b92915050565b600080806113c884826118e2565b92506113d5846014611992565b90506113e28460176118e2565b91509193909250565b6000611401856113fc868686611a39565b611a8f565b95945050505050565b7f00000000000000000000000000000000000000000000000000000000000000006001600160a01b0316846001600160a01b031614801561144b5750804710155b1561156d577f00000000000000000000000000000000000000000000000000000000000000006001600160a01b031663d0e30db0826040518263ffffffff1660e01b81526004016000604051808303818588803b1580156114ab57600080fd5b505af11580156114bf573d6000803e3d6000fd5b50505050507f00000000000000000000000000000000000000000000000000000000000000006001600160a01b031663a9059cbb83836040518363ffffffff1660e01b815260040180836001600160a01b0316815260200182815260200192505050602060405180830381600087803b15801561153b57600080fd5b505af115801561154f573d6000803e3d6000fd5b505050506040513d602081101561156557600080fd5b50610eb69050565b6001600160a01b03831630141561158e57611589848383611747565b610eb6565b610eb684848484611ab2565b8051604211155b919050565b80516060906113b490839060179060161901611c02565b60006001600160a01b0384166115d1573093505b60008060006115e385600001516113ba565b919450925090506001600160a01b038084169083161060008061160785878661188e565b6001600160a01b031663128acb088b856116208f6118cc565b6000036001600160a01b038e1615611638578d61165e565b876116575773fffd8963efd1fc6a506488495d951d5263988d2561165e565b6401000276a45b8d60405160200161166f9190612515565b6040516020818303038152906040526040518663ffffffff1660e01b815260040161169e959493929190612403565b6040805180830381600087803b1580156116b757600080fd5b505af11580156116cb573d6000803e3d6000fd5b505050506040513d601f19601f820116820180604052508101906116ef9190612050565b9150915060008361170457818360000361170a565b82826000035b90985090506001600160a01b038a16611729578b811461172957600080fd5b50505050505050949350505050565b60606113b4826000602b611c02565b604080516001600160a01b038481166024830152604480830185905283518084039091018152606490920183526020820180516001600160e01b031663a9059cbb60e01b1781529251825160009485949389169392918291908083835b602083106117c35780518252601f1990920191602091820191016117a4565b6001836020036101000a0380198251168184511680821785525050505050509050019150506000604051808303816000865af19150503d8060008114611825576040519150601f19603f3d011682016040523d82523d6000602084013e61182a565b606091505b5091509150818015611858575080511580611858575080806020019051602081101561185557600080fd5b50515b610806576040805162461bcd60e51b815260206004820152600260248201526114d560f21b604482015290519081900360640190fd5b60006118c47f00000000000000000000000000000000000000000000000000000000000000006118bf868686611a39565b611d53565b949350505050565b6000600160ff1b82106118de57600080fd5b5090565b600081826014011015611931576040805162461bcd60e51b8152602060048201526012602482015271746f416464726573735f6f766572666c6f7760701b604482015290519081900360640190fd5b8160140183511015611982576040805162461bcd60e51b8152602060048201526015602482015274746f416464726573735f6f75744f66426f756e647360581b604482015290519081900360640190fd5b500160200151600160601b900490565b6000818260030110156119e0576040805162461bcd60e51b8152602060048201526011602482015270746f55696e7432345f6f766572666c6f7760781b604482015290519081900360640190fd5b8160030183511015611a30576040805162461bcd60e51b8152602060048201526014602482015273746f55696e7432345f6f75744f66426f756e647360601b604482015290519081900360640190fd5b50016003015190565b611a41611e32565b826001600160a01b0316846001600160a01b03161115611a5f579192915b50604080516060810182526001600160a01b03948516815292909316602083015262ffffff169181019190915290565b6000611a9b8383611d53565b9050336001600160a01b038216146113b457600080fd5b604080516001600160a01b0385811660248301528481166044830152606480830185905283518084039091018152608490920183526020820180516001600160e01b03166323b872dd60e01b178152925182516000948594938a169392918291908083835b60208310611b365780518252601f199092019160209182019101611b17565b6001836020036101000a0380198251168184511680821785525050505050509050019150506000604051808303816000865af19150503d8060008114611b98576040519150601f19603f3d011682016040523d82523d6000602084013e611b9d565b606091505b5091509150818015611bcb575080511580611bcb5750808060200190516020811015611bc857600080fd5b50515b610804576040805162461bcd60e51b815260206004820152600360248201526229aa2360e91b604482015290519081900360640190fd5b60608182601f011015611c4d576040805162461bcd60e51b815260206004820152600e60248201526d736c6963655f6f766572666c6f7760901b604482015290519081900360640190fd5b828284011015611c95576040805162461bcd60e51b815260206004820152600e60248201526d736c6963655f6f766572666c6f7760901b604482015290519081900360640190fd5b81830184511015611ce1576040805162461bcd60e51b8152602060048201526011602482015270736c6963655f6f75744f66426f756e647360781b604482015290519081900360640190fd5b606082158015611d005760405191506000825260208201604052611d4a565b6040519150601f8416801560200281840101858101878315602002848b0101015b81831015611d39578051835260209283019201611d21565b5050858452601f01601f1916604052505b50949350505050565b600081602001516001600160a01b031682600001516001600160a01b031610611d7b57600080fd5b50805160208083015160409384015184516001600160a01b0394851681850152939091168385015262ffffff166060808401919091528351808403820181526080840185528051908301206001600160f81b031960a085015294901b6001600160601b03191660a183015260b58201939093527f9924cf4430a7fdab68f1bbc1f001e17a98f18d18b73a230792933c733c00cdb660d5808301919091528251808303909101815260f5909101909152805191012090565b604080516060810182526000808252602082018190529181019190915290565b80356115a181612616565b600082601f830112611e6d578081fd5b8135611e80611e7b826125c9565b6125a6565b818152846020838601011115611e94578283fd5b816020850160208301379081016020019190915292915050565b60006101008284031215610403578081fd5b600060208284031215611ed1578081fd5b8135611edc81612616565b9392505050565b600080600060608486031215611ef7578182fd5b8335611f0281612616565b9250602084013591506040840135611f1981612616565b809150509250925092565b600080600080600060a08688031215611f3b578081fd5b8535611f4681612616565b9450602086013593506040860135611f5d81612616565b9250606086013591506080860135611f7481612616565b809150509295509295909350565b60008060008060008060c08789031215611f9a578081fd5b8635611fa581612616565b95506020870135945060408701359350606087013560ff81168114611fc8578182fd5b9598949750929560808101359460a0909101359350915050565b60008060208385031215611ff4578182fd5b82356001600160401b038082111561200a578384fd5b818501915085601f83011261201d578384fd5b81358181111561202b578485fd5b866020808302850101111561203e578485fd5b60209290920196919550909350505050565b60008060408385031215612062578182fd5b505080516020909101519092909150565b60008060008060608587031215612088578182fd5b843593506020850135925060408501356001600160401b03808211156120ac578384fd5b818701915087601f8301126120bf578384fd5b8135818111156120cd578485fd5b8860208285010111156120de578485fd5b95989497505060200194505050565b6000602082840312156120fe578081fd5b81516001600160401b03811115612113578182fd5b8201601f81018413612123578182fd5b8051612131611e7b826125c9565b818152856020838501011115612145578384fd5b6114018260208301602086016125ea565b600060208284031215612167578081fd5b81356001600160401b038082111561217d578283fd5b9083019060a08286031215612190578283fd5b60405160a0810181811083821117156121a557fe5b6040528235828111156121b6578485fd5b6121c287828601611e5d565b8252506121d160208401611e52565b602082015260408301356040820152606083013560608201526080830135608082015280935050505092915050565b60006101008284031215612212578081fd5b611edc8383611eae565b60006020828403121561222d578081fd5b81356001600160401b03811115612242578182fd5b820160a08185031215611edc578182fd5b600060208284031215612264578081fd5b81356001600160401b038082111561227a578283fd5b908301906040828603121561228d578283fd5b6040516040810181811083821117156122a257fe5b6040528235828111156122b3578485fd5b6122bf87828601611e5d565b825250602083013592506122d283612616565b6020810192909252509392505050565b6000602082840312156122f3578081fd5b813562ffffff81168114611edc578182fd5b60008060408385031215612317578182fd5b82359150602083013561232981612616565b809150509250929050565b60008060008060808587031215612349578182fd5b84359350602085013561235b81612616565b925060408501359150606085013561237281612616565b939692955090935050565b600081518084526123958160208601602086016125ea565b601f01601f19169290920160200192915050565b606093841b6001600160601b0319908116825260e89390931b6001600160e81b0319166014820152921b166017820152602b0190565b6000828483379101908152919050565b6001600160a01b0391909116815260200190565b6001600160a01b0386811682528515156020830152604082018590528316606082015260a06080820181905260009061243e9083018461237d565b979650505050505050565b6000602080830181845280855180835260408601915060408482028701019250838701855b8281101561249c57603f1988860301845261248a85835161237d565b9450928501929085019060010161246e565b5092979650505050505050565b600060208252611edc602083018461237d565b602080825260129082015271151bdbc81b5d58da081c995c5d595cdd195960721b604082015260600190565b602080825260139082015272151bdbc81b1a5d1d1b19481c9958d95a5d9959606a1b604082015260600190565b600060208252825160406020840152612531606084018261237d565b602094909401516001600160a01b0316604093909301929092525090919050565b90815260200190565b6000808335601e19843603018112612571578283fd5b8301803591506001600160401b0382111561258a578283fd5b60200191503681900382131561259f57600080fd5b9250929050565b6040518181016001600160401b03811182821017156125c157fe5b604052919050565b60006001600160401b038211156125dc57fe5b50601f01601f191660200190565b60005b838110156126055781810151838201526020016125ed565b83811115610eb65750506000910152565b6001600160a01b038116811461262b57600080fd5b5056fea164736f6c6343000706000a",
  "linkReferences": {},
  "deployedLinkReferences": {}
}